:100000000C9446000C9465000C9465000C946500FB
:100010000C9465000C9465000C9465000C946500CC
:100020000C9465000C9465000C9465000C946500BC
:100030000C9465000C94DE010C9465000C94650032
:100040000C9465000C9465000C9465000C9465009C
:100050000C9465000C9465000C9465000C9465008C
:100060000C9465000C9465000C9465000C9465007C
:100070000C9465000C9465000C9465000C9465006C
:100080000C9465000C9465000C94650011241FBE4F
:10009000CFEFD0E4DEBFCDBF11E0A0E0B1E0E8E2F9
:1000A000F0E100E00BBF02C007900D92A632B1074D
:1000B000D9F721E0A6E2B1E001C01D92A53DB2074B
:1000C000E1F70E9430060C9412080C940000CF93C4
:1000D000DF93CDB7DEB781E00E948E000000DF9194
:1000E000CF910895CF93DF93CDB7DEB784E690E04C
:1000F0000E94320188E30E948E0086E00E948E00FA
:100100008FE00E948E0081E00E948E008AE090E0E5
:100110000E9432010000DF91CF910895CF93DF93C9
:100120001F92CDB7DEB789838BE290E02BE230E0FF
:10013000F90120812F7BFC01208388E290E0298156
:10014000FC0120838BE290E02BE230E0F90120817A
:100150002068FC01208300008BE290E02BE230E07D
:10016000F90120812F77FC01208382E090E00E943A
:10017000320100000F90DF91CF910895CF93DF936C
:100180001F92CDB7DEB789838BE290E02BE230E09F
:10019000F90120812064FC01208388E290E029811C
:1001A000FC0120838BE290E02BE230E0F90120811A
:1001B0002068FC01208300008BE290E02BE230E01D
:1001C000F90120812F77FC01208381E090E00E94DB
:1001D000320100000F90DF91CF910895CF93DF930C
:1001E00000D000D0CDB7DEB78A837C836B830E94BA
:1001F00067008A81898311C0898191E0980F998372
:100200000E941B018B819C819C012F5F3F4F3C838F
:100210002B83FC0180810E94BE008B819C81FC01AC
:100220008081882349F700000F900F900F900F9066
:10023000DF91CF910895CF93DF931F92CDB7DEB7B3
:1002400089838981813128F4898181580E948E00B7
:1002500004C0898181550E948E0000000F90DF91BB
:10026000CF910895CF93DF9300D000D000D0CDB7C9
:10027000DEB79E838D831A82198213C01C821B8273
:1002800006C000008B819C8101969C838B838B81AF
:100290009C8187309340ACF389819A8101969A833F
:1002A000898329813A818D819E812817390734F30A
:1002B000000026960FB6F894DEBF0FBECDBFDF91CB
:1002C000CF910895CF93DF9300D000D0CDB7DEB7A4
:1002D00069837A838B839C8389819A81AB81BC817A
:1002E0008093000190930101A0930201B093030158
:1002F0008091000190910101A0910201B091030150
:100300008093270190932801A0932901B0932A019B
:1003100000000F900F900F900F90DF91CF910895F4
:10032000CF93DF93CDB7DEB781E890E02BE0FC01FF
:10033000208388E890E02DE730E0FC0131832083C2
:100340008FE690E022E0FC01208384E890E0FC014D
:10035000118210828091000190910101A09102010F
:10036000B09103018093270190932801A093290164
:10037000B0932A018FE590E02FE530E0F90120816C
:100380002068FC0120830000DF91CF910895CF9376
:10039000DF93CDB7DEB781E890E0FC01108200006A
:1003A000DF91CF910895CF93DF93CDB7DEB781E092
:1003B000809326010000DF91CF9108951F920F9244
:1003C00000905F000F92112400905B000F922F931A
:1003D0003F934F935F936F937F938F939F93AF93CD
:1003E000BF93EF93FF93CF93DF93CDB7DEB78091A9
:1003F000270190912801A0912901B0912A0101972C
:10040000A109B1098093270190932801A0932901A4
:10041000B0932A018091270190912801A091290190
:10042000B0912A01892B8A2B8B2B91F40E94D30146
:100430008091000190910101A0910201B09103010E
:100440008093270190932801A0932901B0932A015A
:100450000000DF91CF91FF91EF91BF91AF919F91FC
:100460008F917F916F915F914F913F912F910F905D
:1004700000925B000F9000925F000F901F90189504
:10048000CF93DF93CDB7DEB72C970FB6F894DEBFCE
:100490000FBECDBF6D837E838F83988729873A8770
:1004A0004B875C878D819E81AF81B88529853A8590
:1004B0004B855C85BC01CD010E94F007DC01CB01BE
:1004C00089839A83AB83BC8389819A81AB81BC8108
:1004D000892B8A2B8B2B29F489859A85AB85BC8542
:1004E00011C089859A85AB85BC858D839E83AF833A
:1004F000B88789819A81AB81BC8189879A87AB87CC
:10050000BC87D0CFBC01CD012C960FB6F894DEBFCE
:100510000FBECDBFDF91CF910895CF93DF93CDB7BD
:10052000DEB7C058D1090FB6F894DEBF0FBECDBFFD
:1005300080E18093040188E08093050120E8CE01EA
:100540000196FC01322F11923A95E9F7809104014E
:10055000909105019A83898320E8CE010196FC01E0
:10056000A5E5B1E001900D922A95E1F781E0809335
:1005700006010000C058DF4F0FB6F894DEBF0FBE73
:10058000CDBFDF91CF910895CF93DF9300D000D0FE
:100590001F92CDB7DEB71982809155019091560117
:1005A0009B838A8380910701882F90E08230910598
:1005B000C1F0833091051CF40197C9F01EC084304E
:1005C000910549F0089709F018C08091550186956A
:1005D0008093550112C080915501880F8093550179
:1005E0000CC080915601880F8093560106C08091FF
:1005F000560186958093560100001C821D82198247
:100600001BC02C818981882F90E0880F991F8B5AFD
:100610009E4FFC018081822B8C832D818981882FC4
:1006200090E0880F991F8A5A9E4FFC018081822B8F
:100630008D8389818F5F89838091060199819817C5
:1006400000F38C819D810F900F900F900F900F9071
:10065000DF91CF910895CF93DF931F92CDB7DEB78F
:10066000898389818823B1F180910701882F90E0E7
:1006700082309105D1F0833091051CF40197E1F0AF
:1006800029C08430910551F0089709F023C0898171
:100690008430C9F089818093070115C08981883031
:1006A000A1F089818093070110C08981813079F0A0
:1006B0008981809307010BC08981823051F0898143
:1006C0008093070106C0000005C0000003C00000C1
:1006D00001C0000000000F90DF91CF910895CF93EB
:1006E000DF9300D01F92CDB7DEB7809104019091C7
:1006F00005019B838A83198203C089818F5F898367
:100700008091060199819817C0F300000F900F9017
:100710000F90DF91CF910895CF93DF9300D0CDB7A5
:10072000DEB7809106018F3311F481E042C08091E1
:1007300006018130C1F580910701882F90E0823059
:100740009105D9F0833091051CF40197F1F025C093
:100750008430910551F0089701F580910401880FCC
:100760008983809105018A831EC08091040186954A
:100770008983809105018A8316C080910401898351
:100780008091050186958A830EC08091040189833A
:1007900080910501880F8A8306C069E171E081E0DC
:1007A0000E94EE000000809106018F5F8093060199
:1007B00080E00F900F90DF91CF910895CF93DF935A
:1007C00000D01F92CDB7DEB789837B836A8389818E
:1007D0008A3031F48A819B81BC018DE00E94DE0366
:1007E00080EC90E0FC018081882F90E08072992756
:1007F000892BB1F386EC90E02981FC01208380E015
:1008000090E00F900F900F90DF91CF910895CF93CC
:10081000DF93CDB7DEB78AE790E02AE730E0F90151
:100820002081206EFC0120830000DF91CF9108958C
:10083000CF93DF9300D000D0CDB7DEB78C838C810F
:1008400080958B8385E290E025E230E0F9012081FC
:100850002260FC0120831A82198234C085E290E074
:1008600025E230E0F90120812061FC01208385E24E
:1008700090E025E230E0F9012081207FFC01208317
:1008800085E290E025E230E0F9012081422F2B81C2
:10089000222F30E0098002C0359527950A94E2F7AF
:1008A0002170242BFC01208385E290E025E230E0DA
:1008B000F90120812860FC01208389819A810196B9
:1008C0009A83898389819A81089744F285E290E02E
:1008D00025E230E0F90120812460FC01208385E2DB
:1008E00090E025E230E0F9012081207CFC012083AA
:1008F00000000F900F900F900F90DF91CF9108950F
:10090000CF93DF9300D01F92CDB7DEB78B838BE2FE
:1009100090E02BE230E0F90120812260FC0120838D
:100920001A82198234C08BE290E02BE230E0F901A8
:1009300020812061FC0120838BE290E02BE230E0FB
:10094000F9012081207FFC0120838BE290E02BE2E3
:1009500030E0F9012081422F2B81222F30E00980E5
:1009600002C0359527950A94E2F72170242BFC01EB
:1009700020838BE290E02BE230E0F90120812860B7
:10098000FC01208389819A8101969A8389838981D8
:100990009A81089744F28BE290E02BE230E0F90173
:1009A00020812460FC0120838BE290E02BE230E088
:1009B000F9012081207CFC01208300000F900F9022
:1009C0000F90DF91CF910895CF93DF9300D000D0A7
:1009D000CDB7DEB79C838B8388E790E0FC018081F4
:1009E00091819A8389838B819C81892B19F01C8248
:1009F0001B8201C000008B819C81892B09F0E2C021
:100A0000809118018130E9F48CE790E02CE730E028
:100A1000F9012081207E30911801232BFC012083D5
:100A200089819A81CC01A0E0B0E080932C01909361
:100A30002D01A0932E01B0932F0182E08093180125
:100A400020C0809118018230E1F48CE790E02CE71F
:100A500030E0F9012081207E30911801232BFC0128
:100A6000208389819A81CC01A0E0B0E0809330019D
:100A700090933101A0933201B093330181E08093D0
:100A8000180180912C0190912D01A0912E01B0911F
:100A90002F018F3E9340A105B10560F080911801B0
:100AA000813041F480912B01882321F484E08093EC
:100AB0002B017FC080912C0190912D01A0912E01DE
:100AC000B0912F018097A105B10560F480911801C4
:100AD000813041F480912B01882321F488E08093B8
:100AE0002B0167C08091300190913101A0913201BA
:100AF000B09133018F3E9340A105B10560F0809124
:100B00001801823041F480912B01882321F482E086
:100B100080932B014EC08091300190913101A091C2
:100B20003201B09133018097A105B10560F4809145
:100B30001801823041F480912B01882321F481E057
:100B400080932B0136C080912C0190912D01A091B2
:100B50002E01B0912F018B3F9105A105B10548F100
:100B600080912C0190912D01A0912E01B0912F0127
:100B70008E3E9240A105B105E0F480913001909144
:100B80003101A0913201B09133018B3F9105A10554
:100B9000B10578F08091300190913101A09132013E
:100BA000B09133018E3E9240A105B10510F4109230
:100BB0002B0180912B01882321F080912B010E9431
:100BC0002B0300008B819C810F900F900F900F9052
:100BD000DF91CF910895CF93DF9300D000D0CDB7B0
:100BE000DEB79C838B830E94C4029A8389838981A8
:100BF000809317018A81809316010E94670080917B
:100C00001701882F90E0C0960E94BE0080E290E01D
:100C10000E94BE0080911601882F90E0C0960E942D
:100C2000BE008B819C810F900F900F900F90DF91F1
:100C3000CF910895CF93DF9300D0CDB7DEB79A83DD
:100C40008983809116010E941804809117010E94E7
:100C5000800489819A810F900F90DF91CF91089540
:100C60000F931F93CF93DF93CDB7DEB72F970FB6B8
:100C7000F894DEBF0FBECDBF81E290E0FC01108290
:100C800082E290E02FEFFC01208384E290E02FEFDE
:100C9000FC01208385E290E0FC01108287E290E075
:100CA0002FEFFC01208388E290E0FC0110828AE2B1
:100CB00090E02FEFFC0120838BE290E0FC0110829A
:100CC0000E9407040E9472000E9467000E948D0229
:100CD00086E0EFE1F1E0DE011A9601900D928A952F
:100CE000E1F783E090E09F838E8381E090E0998735
:100CF00088871092340188859985880F991FCC01C7
:100D0000A0E0B0E08093350190933601A0933701C5
:100D1000B09338018091350190913601A09137014F
:100D2000B09138018093390190933A01A0933B012F
:100D3000B0933C0184EE94E090933E0180933D019A
:100D400010923F014885598528EE33E0429FC0014B
:100D5000439F900D529F900D1124CC01A0E0B0E074
:100D60008093400190934101A0934201B0934301CD
:100D70008091400190914101A0914201B0914301C5
:100D80008093440190934501A0934601B09347019D
:100D90008BEE95E0909349018093480110924A01AF
:100DA00088859985CC01A0E0B0E080934B019093B9
:100DB0004C01A0934D01B0934E0180914B01909155
:100DC0004C01A0914D01B0914E0180934F01909341
:100DD0005001A0935101B09352018AE196E09093A3
:100DE0005401809353018A859B85FC018181928106
:100DF000A381B4818A839B83AC83BD8381E0898393
:100E000024C08981882F90E0880F991F9E012F5F51
:100E10003F4F820F931F0996FC0180819181FC0155
:100E200021813281438154818A819B81AC81BD8142
:100E3000BC01CD010E944002DC01CB018A839B836F
:100E4000AC83BD8389818F5F89838981282F30E0BE
:100E50008E819F8128173907A0F28A819B81AC81FE
:100E6000BD81BC01CD010E9462010E9490011982E6
:100E7000A6C08981882F90E0880F991F9E012F5F5F
:100E80003F4F820F931F0996FC0180819181FC01E5
:100E900025813681478150858981882F90E0880F90
:100EA000991FBE016F5F7F4F860F971F0996FC0148
:100EB00080819181FC0181819281A381B481281775
:100EC00039074A075B0709F049C08981882F90E0FC
:100ED000880F991F9E012F5F3F4F820F931F099626
:100EE000FC01008111818981882F90E0880F991F72
:100EF0009E012F5F3F4F820F931F0996FC01808157
:100F00009181FC01218532858981882F90E0880FAD
:100F1000991FAE014F5F5F4F840F951F0996FC012B
:100F200080819181FC018081082E000C990BF901D0
:100F30000995F80180838981882F90E0880F991F97
:100F40009E012F5F3F4F820F931F0996FC01808106
:100F50009181FC0115821682178210868981882F63
:100F600090E0880F991F9E012F5F3F4F820F931FC4
:100F70000996FC01608171818981882F90E0880F3A
:100F8000991F9E012F5F3F4F820F931F0996FC010F
:100F900080819181FC0125813681478150858A813C
:100FA0009B81AC81BD81820F931FA41FB51FFB01E4
:100FB00085839683A783B08789818F5F89838981A1
:100FC000282F30E08E819F812817390708F451CFF0
:100FD0000000809126018823E1F31092260147CF7B
:100FE000A1E21A2EAA1BBB1BFD010DC0AA1FBB1F2D
:100FF000EE1FFF1FA217B307E407F50720F0A21B9F
:10100000B30BE40BF50B661F771F881F991F1A940B
:1010100069F760957095809590959B01AC01BD0135
:08102000CF010895F894FFCF01
:10102800010000001008010100000002000000009B
:10103800DE03000000000810014552524F520034F0
:06104800013F014A010016
:00000001FF
