:100000000C9446000C9465000C9465000C946500FB
:100010000C9465000C9465000C9465000C946500CC
:100020000C9465000C9465000C9465000C946500BC
:100030000C9465000C94DE010C9465000C94650032
:100040000C9465000C9465000C9465000C9465009C
:100050000C9465000C9465000C9465000C9465008C
:100060000C9465000C9465000C9465000C9465007C
:100070000C9465000C9465000C9465000C9465006C
:100080000C9465000C9465000C94650011241FBE4F
:10009000CFEFD0E4DEBFCDBF11E0A0E0B1E0E6E1FC
:1000A000F5E100E00BBF02C007900D92A831B10747
:1000B000D9F721E0A8E1B1E001C01D92A434B20754
:1000C000E1F70E94DF050C94890A0C940000CF939D
:1000D000DF93CDB7DEB781E00E948E000000DF9194
:1000E000CF910895CF93DF93CDB7DEB784E690E04C
:1000F0000E94320188E30E948E0086E00E948E00FA
:100100008FE00E948E0081E00E948E008AE090E0E5
:100110000E9432010000DF91CF910895CF93DF93C9
:100120001F92CDB7DEB789838BE290E02BE230E0FF
:10013000F90120812F7BFC01208388E290E0298156
:10014000FC0120838BE290E02BE230E0F90120817A
:100150002068FC01208300008BE290E02BE230E07D
:10016000F90120812F77FC01208382E090E00E943A
:10017000320100000F90DF91CF910895CF93DF936C
:100180001F92CDB7DEB789838BE290E02BE230E09F
:10019000F90120812064FC01208388E290E029811C
:1001A000FC0120838BE290E02BE230E0F90120811A
:1001B0002068FC01208300008BE290E02BE230E01D
:1001C000F90120812F77FC01208381E090E00E94DB
:1001D000320100000F90DF91CF910895CF93DF930C
:1001E00000D000D0CDB7DEB78A837C836B830E94BA
:1001F00067008A81898311C0898191E0980F998372
:100200000E941B018B819C819C012F5F3F4F3C838F
:100210002B83FC0180810E94BE008B819C81FC01AC
:100220008081882349F700000F900F900F900F9066
:10023000DF91CF910895CF93DF931F92CDB7DEB7B3
:1002400089838981813128F4898181580E948E00B7
:1002500004C0898181550E948E0000000F90DF91BB
:10026000CF910895CF93DF9300D000D000D0CDB7C9
:10027000DEB79E838D831A82198213C01C821B8273
:1002800006C000008B819C8101969C838B838B81AF
:100290009C8187309340ACF389819A8101969A833F
:1002A000898329813A818D819E812817390734F30A
:1002B000000026960FB6F894DEBF0FBECDBFDF91CB
:1002C000CF910895CF93DF9300D000D0CDB7DEB7A4
:1002D00069837A838B839C8389819A81AB81BC817A
:1002E0008093000190930101A0930201B093030158
:1002F0008091000190910101A0910201B091030150
:100300008093190190931A01A0931B01B0931C01D3
:1003100000000F900F900F900F90DF91CF910895F4
:10032000CF93DF93CDB7DEB781E890E02BE0FC01FF
:10033000208388E890E02DE730E0FC0131832083C2
:100340008FE690E022E0FC01208384E890E0FC014D
:10035000118210828091000190910101A09102010F
:10036000B09103018093190190931A01A0931B018E
:10037000B0931C018FE590E02FE530E0F90120817A
:100380002068FC0120830000DF91CF910895CF9376
:10039000DF93CDB7DEB781E890E0FC01108200006A
:1003A000DF91CF910895CF93DF93CDB7DEB781E092
:1003B000809318010000DF91CF9108951F920F9252
:1003C00000905F000F92112400905B000F922F931A
:1003D0003F934F935F936F937F938F939F93AF93CD
:1003E000BF93EF93FF93CF93DF93CDB7DEB78091A9
:1003F000190190911A01A0911B01B0911C01019764
:10040000A109B1098093190190931A01A0931B01CE
:10041000B0931C018091190190911A01A0911B01C8
:10042000B0911C01892B8A2B8B2B91F40E94D30154
:100430008091000190910101A0910201B09103010E
:100440008093190190931A01A0931B01B0931C0192
:100450000000DF91CF91FF91EF91BF91AF919F91FC
:100460008F917F916F915F914F913F912F910F905D
:1004700000925B000F9000925F000F901F90189504
:10048000CF93DF93CDB7DEB72C970FB6F894DEBFCE
:100490000FBECDBF6D837E838F83988729873A8770
:1004A0004B875C878D819E81AF81B88529853A8590
:1004B0004B855C85BC01CD010E947207DC01CB013C
:1004C00089839A83AB83BC8389819A81AB81BC8108
:1004D000892B8A2B8B2B29F489859A85AB85BC8542
:1004E00011C089859A85AB85BC858D839E83AF833A
:1004F000B88789819A81AB81BC8189879A87AB87CC
:10050000BC87D0CFBC01CD012C960FB6F894DEBFCE
:100510000FBECDBFDF91CF910895CF93DF9300D071
:100520001F92CDB7DEB789837B836A8389818A3046
:1005300031F48A819B81BC018DE00E948D0280ECA8
:1005400090E0FC018081882F90E080729927892BB0
:10055000B1F386EC90E02981FC01208380E090E0FB
:100560000F900F900F90DF91CF910895CF93DF936D
:10057000CDB7DEB78AE790E02AE730E0F9012081C5
:10058000206EFC0120830000DF91CF910895CF936E
:10059000DF9300D000D0CDB7DEB78C838C818095FF
:1005A0008B8385E290E025E230E0F9012081226032
:1005B000FC0120831A82198234C085E290E025E292
:1005C00030E0F90120812061FC01208385E290E088
:1005D00025E230E0F9012081207FFC01208385E2C3
:1005E00090E025E230E0F9012081422F2B81222F7B
:1005F00030E0098002C0359527950A94E2F7217012
:10060000242BFC01208385E290E025E230E0F90113
:1006100020812860FC01208389819A8101969A8338
:10062000898389819A81089744F285E290E025E2E6
:1006300030E0F90120812460FC01208385E290E014
:1006400025E230E0F9012081207CFC0120830000BC
:100650000F900F900F900F90DF91CF910895CF934F
:10066000DF9300D01F92CDB7DEB78B838BE290E093
:100670002BE230E0F90120812260FC0120831A8204
:10068000198234C08BE290E02BE230E0F901208146
:100690002061FC0120838BE290E02BE230E0F90145
:1006A0002081207FFC0120838BE290E02BE230E070
:1006B000F9012081422F2B81222F30E0098002C0D6
:1006C000359527950A94E2F72170242BFC012083AD
:1006D0008BE290E02BE230E0F90120812860FC0100
:1006E000208389819A8101969A83898389819A815D
:1006F000089744F28BE290E02BE230E0F901208190
:100700002460FC0120838BE290E02BE230E0F901D1
:100710002081207CFC01208300000F900F900F901F
:10072000DF91CF910895AF92BF92CF92DF92EF9277
:10073000FF920F931F93CF93DF9300D000D000D090
:10074000CDB7DEB79E838D8388E790E0FC01808182
:1007500091819A8389838D819E81892B19F01E82D4
:100760001D8201C000008D819E81892B09F0FEC190
:1007700080911401813041F58CE790E02CE730E066
:10078000F9012081207E30911401232BFC0120836C
:1007900089819A819C0140E050E060E070E0CB01EB
:1007A00020931D0130931E0140931F01509320019F
:1007B000609321017093220180932301909324017F
:1007C00082E0809314012BC080911401823039F5AE
:1007D0008CE790E02CE730E0F9012081207E309119
:1007E0001401232BFC01208389819A819C0140E024
:1007F00050E060E070E0CB012093250130932601AA
:1008000040932701509328016093290170932A0196
:1008100080932B0190932C0181E08093140120910F
:100820001D0130911E0140911F01509120016091E6
:100830002101709122018091230190912401E92FDF
:10084000EF93E82FEF93E72FEF93E62FEF93E52F4A
:10085000EF93E42FEF93E32FEF93822F8F9385E1B4
:1008600091E0892F8F9385E191E08F938C818F9315
:100870008B818F930E94A0078DB79EB70C960FB601
:10088000F894DEBF0FBECDBF8B819C81BC0181E09F
:100890000E94EE00A0901D01B0901E01C0901F01AB
:1008A000D0902001E0902101F090220100912301DD
:1008B000109124012A2D3B2D4C2D5D2D6E2D7F2D69
:1008C000802F912F2E3E3340410551056105710562
:1008D00081059105C9F0C0F0809114018130A1F427
:1008E00080912D01882381F480911301803821F0BB
:1008F00080911301880F02C080911301809313012E
:1009000084E080932D0131C1A0901D01B0901E01A3
:10091000C0901F01D0902001E0902101F0902201B1
:1009200000912301109124012A2D3B2D4C2D5D2D8A
:100930006E2D7F2D802F912FAFE10E94940709F03B
:10094000C0F4809114018130A1F480912D0188239D
:1009500081F480911301813021F0809113018695FB
:1009600002C0809113018093130188E080932D01D0
:10097000FCC0A0902501B0902601C0902701D09026
:100980002801E0902901F0902A0100912B0110919B
:100990002C012A2D3B2D4C2D5D2D6E2D7F2D802F72
:1009A000912F2E3E334041055105610571058105AA
:1009B0009105C9F0C0F0809114018230A1F48091BA
:1009C0002D01882381F480911201803821F08091DB
:1009D0001201880F02C0809112018093120182E0FF
:1009E00080932D01C2C0A0902501B0902601C09037
:1009F0002701D0902801E0902901F0902A01009170
:100A00002B0110912C012A2D3B2D4C2D5D2D6E2D8F
:100A10007F2D802F912FAFE10E94940709F0C0F441
:100A2000809114018230A1F480912D01882381F4FA
:100A300080911201813021F080911201869502C0CF
:100A4000809112018093120181E080932D018DC06D
:100A5000A0901D01B0901E01C0901F01D0902001F8
:100A6000E0902101F09022010091230110912401D6
:100A70002A2D3B2D4C2D5D2D6E2D7F2D802F912FFE
:100A80002A3F310541055105610571058105910533
:100A900009F008F46AC0A0901D01B0901E01C0903A
:100AA0001F01D0902001E0902101F09022010091DF
:100AB0002301109124012A2D3B2D4C2D5D2D6E2DEF
:100AC0007F2D802F912F2D3E32404105510561052C
:100AD00071058105910511F008F047C0A09025012E
:100AE000B0902601C0902701D0902801E090290104
:100AF000F0902A0100912B0110912C012A2D3B2D01
:100B00004C2D5D2D6E2D7F2D802F912F2A3F31058D
:100B100041055105610571058105910531F128F106
:100B2000A0902501B0902601C0902701D090280107
:100B3000E0902901F0902A0100912B0110912C01E5
:100B40002A2D3B2D4C2D5D2D6E2D7F2D802F912F2D
:100B50002D3E324041055105610571058105910524
:100B600009F018F410922D0100C000008D819E81C3
:100B700026960FB6F894DEBF0FBECDBFDF91CF91A2
:100B80001F910F91FF90EF90DF90CF90BF90AF90AB
:100B90000895CF93DF9300D0CDB7DEB79A838983D2
:100BA000809112010E94C702809113010E942F03BD
:100BB00089819A810F900F90DF91CF9108950F93C3
:100BC0001F93CF93DF93CDB7DEB72D970FB6F89471
:100BD000DEBF0FBECDBF81E290E0FC01108282E259
:100BE00090E02FEFFC01208384E290E02FEFFC01E6
:100BF000208385E290E0FC01108287E290E02FEFF5
:100C0000FC01208388E290E0FC0110828AE290E0FF
:100C10002FEFFC0120838BE290E0FC0110820E9408
:100C2000B6020E9472000E94670089E390E00E9471
:100C3000BE008EE291E09B878A8789E391E09D87E1
:100C40008C8782E090E09F838E8381E090E099879B
:100C5000888710922E0188859985880F991FCC016D
:100C6000A0E0B0E080932F0190933001A093310178
:100C7000B093320180912F0190913001A091310108
:100C8000B09132018093330190933401A0933501E8
:100C9000B093360183E993E0909338018093370154
:100CA0001092390188859985CC01A0E0B0E080934D
:100CB0003A0190933B01A0933C01B0933D01809198
:100CC0003A0190913B01A0913C01B0913D0180938C
:100CD0003E0190933F01A0934001B093410189EC04
:100CE00095E090934301809342018A859B85FC01A6
:100CF00081819281A381B4818A839B83AC83BD83EC
:100D000081E0898324C08981882F90E0880F991F12
:100D10009E012F5F3F4F820F931F0996FC01808138
:100D20009181FC0121813281438154818A819B819F
:100D3000AC81BD81BC01CD010E944002DC01CB0130
:100D40008A839B83AC83BD8389818F5F89838981FB
:100D5000282F30E08E819F8128173907A0F28A81E1
:100D60009B81AC81BD81BC01CD010E9462010E94CA
:100D700090011982A6C08981882F90E0880F991F61
:100D80009E012F5F3F4F820F931F0996FC018081C8
:100D90009181FC0125813681478150858981882F89
:100DA00090E0880F991FBE016F5F7F4F860F971FDE
:100DB0000996FC0180819181FC0181819281A3814E
:100DC000B481281739074A075B0709F049C08981B0
:100DD000882F90E0880F991F9E012F5F3F4F820F51
:100DE000931F0996FC01008111818981882F90E071
:100DF000880F991F9E012F5F3F4F820F931F099607
:100E0000FC0180819181FC01218532858981882FB7
:100E100090E0880F991FAE014F5F5F4F840F951FC1
:100E20000996FC0180819181FC018081082E000CD3
:100E3000990BF9010995F80180838981882F90E049
:100E4000880F991F9E012F5F3F4F820F931F0996B6
:100E5000FC0180819181FC01158216821782108627
:100E60008981882F90E0880F991F9E012F5F3F4F47
:100E7000820F931F0996FC01608171818981882FFF
:100E800090E0880F991F9E012F5F3F4F820F931FA5
:100E90000996FC0180819181FC0125813681478181
:100EA00050858A819B81AC81BD81820F931FA41FD5
:100EB000B51FFB0185839683A783B08789818F5FE8
:100EC00089838981282F30E08E819F8128173907F7
:100ED00008F451CF0000809118018823E1F31092AB
:100EE000180147CFA1E21A2EAA1BBB1BFD010DC0A2
:100EF000AA1FBB1FEE1FFF1FA217B307E407F507CA
:100F000020F0A21BB30BE40BF50B661F771F881FA5
:100F1000991F1A9469F760957095809590959B013B
:100F2000AC01BD01CF0108950024A7FD00942A174C
:100F30003005400550056005700580059005089551
:100F40000F931F93CF93DF93CDB7DEB72E970FB6D6
:100F5000F894DEBF0FBECDBF0D891E8986E08C835D
:100F60001A8309838FEF9FE79E838D83AE01475ECF
:100F70005F4F6F89788DCE0101960E94CF07EF8178
:100F8000F885E00FF11F10822E960FB6F894DEBFA1
:100F90000FBECDBFDF91CF911F910F9108952F927A
:100FA0003F924F925F926F927F928F929F92AF92F9
:100FB000BF92CF92DF92EF92FF920F931F93CF9346
:100FC000DF93CDB7DEB72B970FB6F894DEBF0FBE19
:100FD000CDBF6C017B018A01FC01178216828381DF
:100FE00081FFCCC1CE0101963C01F6019381F7014E
:100FF00093FD859193FF81917F01882309F4BAC104
:10100000853239F493FD859193FF81917F0185327B
:1010100029F4B60190E00E94EF09E7CF912C212C32
:10102000312CFFE1F315D8F08B3279F038F48032AF
:1010300079F08332A1F4232D20611DC08D3261F03F
:10104000803369F4232D216016C0832D8260382EF1
:10105000E32DE4603E2E2AC0F32DF8601DC037FC5E
:101060002DC020ED280F2A3040F08E32B9F436FC26
:1010700081C1232D2064322E19C036FE06C08AE0BD
:10108000989E200D1124922E11C0EAE02E9E200D74
:101090001124222EF32DF0623F2E08C08C3621F44D
:1010A000832D8068382E02C0883641F4F70193FD05
:1010B000859193FF81917F018111B3CF982F9F7DFF
:1010C0009554933028F40C5F1F4F9FE399830DC014
:1010D000833631F0833771F0833509F059C021C070
:1010E000F801808189830E5F1F4F88248394912C9F
:1010F000530113C02801F2E04F0E511CF801A080EB
:10110000B18036FE03C0692D70E002C06FEF7FEF43
:10111000C5010E94E4094C018201F32DFF773F2EA7
:1011200016C0280122E0420E511CF801A080B180B7
:1011300036FE03C0692D70E002C06FEF7FEFC5017E
:101140000E94D9094C01F32DF0683F2E820133FC37
:101150001BC0822D90E088169906B0F4B60180E29B
:1011600090E00E94EF092A94F4CFF50137FC8591B5
:1011700037FE81915F01B60190E00E94EF092110D6
:101180002A9421E0821A91088114910471F7E8C031
:10119000843611F0893641F5F80137FE07C06081C9
:1011A0007181828193810C5F1F4F08C060817181C2
:1011B000072E000C880B990B0E5F1F4FF32DFF7647
:1011C0003F2E97FF09C090958095709561957F4F50
:1011D0008F4F9F4FF0683F2E2AE030E0A3010E941E
:1011E0002B0A882E861845C0853731F4232D2F7E93
:1011F000B22E2AE030E025C0932D997FB92E8F368C
:10120000C1F018F4883579F0B5C0803719F0883707
:1012100021F0B0C0E92FE061BE2EB4FE0DC0FB2D61
:10122000F460BF2E09C034FE0AC0292F2660B22EFA
:1012300006C028E030E005C020E130E002C020E137
:1012400032E0F801B7FE07C060817181828193812D
:101250000C5F1F4F06C06081718180E090E00E5FDF
:101260001F4FA3010E942B0A882E8618FB2DFF77A3
:101270003F2E36FE0DC0232D2E7FA22E891458F44A
:1012800034FE0BC032FC09C0832D8E7EA82E05C013
:10129000B82CA32C03C0B82C01C0B92CA4FE0FC0DD
:1012A000FE01E80DF11D8081803321F49A2D997E95
:1012B000A92E09C0A2FE06C0B394B39404C08A2D1F
:1012C000867809F0B394A3FC11C0A0FE06C0B21446
:1012D00088F4280C922C9B180EC0B21460F4B6014E
:1012E00080E290E00E94EF09B394F7CFB21418F4B3
:1012F0002B1802C0982C212CA4FE10C0B60180E34C
:1013000090E00E94EF09A2FE17C0A1FC03C088E78D
:1013100090E002C088E590E0B6010CC08A2D867886
:1013200059F0A1FE02C08BE201C080E2A7FC8DE271
:10133000B60190E00E94EF09891438F4B60180E309
:1013400090E00E94EF099A94F7CF8A94F301E80D98
:10135000F11D8081B60190E00E94EF098110F5CF68
:10136000222009F442CEB60180E290E00E94EF090B
:101370002A94F6CFF6018681978102C08FEF9FEF06
:101380002B960FB6F894DEBF0FBECDBFDF91CF9185
:101390001F910F91FF90EF90DF90CF90BF90AF9093
:1013A0009F908F907F906F905F904F903F902F9085
:1013B0000895FC010590615070400110D8F78095A8
:1013C00090958E0F9F1F0895FC0161507040019011
:1013D0000110D8F7809590958E0F9F1F08950F9359
:1013E0001F93CF93DF93FB01238121FD03C08FEF78
:1013F0009FEF2CC022FF16C0468157812481358182
:101400004217530744F4A081B1819D012F5F3F4FE4
:10141000318320838C93268137812F5F3F4F378321
:10142000268314C08B01EC01FB010084F185E02DC3
:101430000995892BE1F6D80116968D919C91179705
:10144000019617969C938E931697CE01DF91CF91BC
:101450001F910F910895FA01AA27283051F12031E8
:1014600081F1E8946F936E7F6E5F7F4F8F4F9F4F38
:10147000AF4FB1E03ED0B4E03CD0670F781F891F7A
:101480009A1FA11D680F791F8A1F911DA11D6A0F48
:10149000711D811D911DA11D20D009F468943F91FB
:1014A0002AE0269F11243019305D3193DEF6CF01FA
:1014B0000895462F4770405D4193B3E00FD0C9F7C0
:1014C000F6CF462F4F70405D4A3318F0495D31FD2D
:1014D0004052419302D0A9F7EACFB4E0A695979580
:1014E000879577956795BA95C9F700976105710556
:1014F00008959B01AC010A2E0694579547953795A0
:101500002795BA95C9F7620F731F841F951FA01DF9
:061510000895F894FFCFDE
:101516000100000000000002000000008D02000033
:0815260000000810012564001B
:00000001FF
