:100000000C9446000C9465000C9465000C946500FB
:100010000C9465000C9465000C9465000C946500CC
:100020000C9465000C9465000C9465000C946500BC
:100030000C9465000C94DE010C9465000C94650032
:100040000C9465000C9465000C9465000C9465009C
:100050000C9465000C9465000C9465000C9465008C
:100060000C9465000C9465000C9465000C9465007C
:100070000C9465000C9465000C9465000C9465006C
:100080000C9465000C9465000C94650011241FBE4F
:10009000CFEFD0E4DEBFCDBF11E0A0E0B1E0E2E6FB
:1000A000F8E100E00BBF02C007900D92AE32B1073D
:1000B000D9F721E0AEE2B1E001C01D92A13EB20746
:1000C000E1F70E94B0060C942F0C0C940000CF9323
:1000D000DF93CDB7DEB781E00E948E000000DF9194
:1000E000CF910895CF93DF93CDB7DEB784E690E04C
:1000F0000E94320188E30E948E0086E00E948E00FA
:100100008FE00E948E0081E00E948E008AE090E0E5
:100110000E9432010000DF91CF910895CF93DF93C9
:100120001F92CDB7DEB789838BE290E02BE230E0FF
:10013000F90120812F7BFC01208388E290E0298156
:10014000FC0120838BE290E02BE230E0F90120817A
:100150002068FC01208300008BE290E02BE230E07D
:10016000F90120812F77FC01208382E090E00E943A
:10017000320100000F90DF91CF910895CF93DF936C
:100180001F92CDB7DEB789838BE290E02BE230E09F
:10019000F90120812064FC01208388E290E029811C
:1001A000FC0120838BE290E02BE230E0F90120811A
:1001B0002068FC01208300008BE290E02BE230E01D
:1001C000F90120812F77FC01208381E090E00E94DB
:1001D000320100000F90DF91CF910895CF93DF930C
:1001E00000D000D0CDB7DEB78A837C836B830E94BA
:1001F00067008A81898311C0898191E0980F998372
:100200000E941B018B819C819C012F5F3F4F3C838F
:100210002B83FC0180810E94BE008B819C81FC01AC
:100220008081882349F700000F900F900F900F9066
:10023000DF91CF910895CF93DF931F92CDB7DEB7B3
:1002400089838981813128F4898181580E948E00B7
:1002500004C0898181550E948E0000000F90DF91BB
:10026000CF910895CF93DF9300D000D000D0CDB7C9
:10027000DEB79E838D831A82198213C01C821B8273
:1002800006C000008B819C8101969C838B838B81AF
:100290009C8187309340ACF389819A8101969A833F
:1002A000898329813A818D819E812817390734F30A
:1002B000000026960FB6F894DEBF0FBECDBFDF91CB
:1002C000CF910895CF93DF9300D000D0CDB7DEB7A4
:1002D00069837A838B839C8389819A81AB81BC817A
:1002E0008093000190930101A0930201B093030158
:1002F0008091000190910101A0910201B091030150
:1003000080932F0190933001A0933101B09332017B
:1003100000000F900F900F900F90DF91CF910895F4
:10032000CF93DF93CDB7DEB781E890E02BE0FC01FF
:10033000208388E890E02DE730E0FC0131832083C2
:100340008FE690E022E0FC01208384E890E0FC014D
:10035000118210828091000190910101A09102010F
:10036000B091030180932F0190933001A09331014C
:10037000B09332018FE590E02FE530E0F901208164
:100380002068FC0120830000DF91CF910895CF9376
:10039000DF93CDB7DEB781E890E0FC01108200006A
:1003A000DF91CF910895CF93DF93CDB7DEB781E092
:1003B00080932E010000DF91CF9108951F920F923C
:1003C00000905F000F92112400905B000F922F931A
:1003D0003F934F935F936F937F938F939F93AF93CD
:1003E000BF93EF93FF93CF93DF93CDB7DEB78091A9
:1003F0002F0190913001A0913101B091320101970C
:10040000A109B10980932F0190933001A09331018C
:10041000B093320180912F0190913001A091310170
:10042000B0913201892B8A2B8B2B91F40E94D3013E
:100430008091000190910101A0910201B09103010E
:1004400080932F0190933001A0933101B09332013A
:100450000000DF91CF91FF91EF91BF91AF919F91FC
:100460008F917F916F915F914F913F912F910F905D
:1004700000925B000F9000925F000F901F90189504
:10048000CF93DF93CDB7DEB72C970FB6F894DEBFCE
:100490000FBECDBF6D837E838F83988729873A8770
:1004A0004B875C878D819E81AF81B88529853A8590
:1004B0004B855C85BC01CD010E948908DC01CB0124
:1004C00089839A83AB83BC8389819A81AB81BC8108
:1004D000892B8A2B8B2B29F489859A85AB85BC8542
:1004E00011C089859A85AB85BC858D839E83AF833A
:1004F000B88789819A81AB81BC8189879A87AB87CC
:10050000BC87D0CFBC01CD012C960FB6F894DEBFCE
:100510000FBECDBFDF91CF910895CF93DF93CDB7BD
:10052000DEB7C058D1090FB6F894DEBF0FBECDBFFD
:1005300080E18093040188E08093050120E8CE01EA
:100540000196FC01322F11923A95E9F7809104014E
:10055000909105019A83898320E8CE010196FC01E0
:10056000ADE5B1E001900D922A95E1F781E080932D
:1005700006010000C058DF4F0FB6F894DEBF0FBE73
:10058000CDBFDF91CF910895CF93DF9300D000D0FE
:100590001F92CDB7DEB7198280915D0190915E0107
:1005A0009B838A8380910701882F90E08230910598
:1005B000C1F0833091051CF40197C9F01EC084304E
:1005C000910549F0089709F018C080915D01869562
:1005D00080935D0112C080915D01880F80935D0161
:1005E0000CC080915E01880F80935E0106C08091EF
:1005F0005E01869580935E01000080915D0190917F
:100600005E0190930501809304011C821D82198272
:100610001BC02C818981882F90E0880F991F835AF5
:100620009E4FFC018081822B8C832D818981882FB4
:1006300090E0880F991F825A9E4FFC018081822B87
:100640008D8389818F5F89838091060199819817B5
:1006500000F38C819D810F900F900F900F900F9061
:10066000DF91CF910895CF93DF931F92CDB7DEB77F
:10067000898389818823B1F180910701882F90E0D7
:1006800082309105D1F0833091051CF40197E1F09F
:1006900029C08430910551F0089709F023C0898161
:1006A0008430C9F089818093070115C08981883021
:1006B000A1F089818093070110C08981813079F090
:1006C0008981809307010BC08981823051F0898133
:1006D0008093070106C0000005C0000003C00000B1
:1006E00001C0000000000F90DF91CF910895CF93DB
:1006F000DF9300D01F92CDB7DEB7809104019091B7
:1007000005019B838A83198203C089818F5F898356
:100710008091060199819817C0F300000F900F9007
:100720000F90DF91CF910895CF93DF9300D0CDB795
:10073000DEB789836A8390915D018981981741F4BE
:1007400090915E018A81981719F481E090E002C0CF
:1007500080E090E00F900F90DF91CF910895CF93BC
:10076000DF9300D0CDB7DEB7809106018F3311F44F
:1007700081E042C0809106018130C1F5809107017E
:10078000882F90E082309105D9F0833091051CF4D8
:100790000197F1F025C08430910551F0089701F5DB
:1007A00080910401880F8983809105018A831EC08E
:1007B0008091040186958983809105018A8316C002
:1007C0008091040189838091050186958A830EC0FA
:1007D00080910401898380910501880F8A8306C076
:1007E0006FE171E081E00E94EE000000809106015F
:1007F0008F5F8093060180E00F900F90DF91CF9183
:100800000895CF93DF9300D01F92CDB7DEB78983D1
:100810007B836A8389818A3031F48A819B81BC0120
:100820008DE00E94010480EC90E0FC018081882F23
:1008300090E080729927892BB1F386EC90E02981B2
:10084000FC01208380E090E00F900F900F90DF91EB
:10085000CF910895CF93DF93CDB7DEB78AE790E0CD
:100860002AE730E0F9012081206EFC01208300009E
:10087000DF91CF910895CF93DF9300D000D0CDB713
:10088000DEB78C838C8180958B8385E290E025E2B6
:1008900030E0F90120812260FC0120831A82198254
:1008A00034C085E290E025E230E0F901208120614A
:1008B000FC01208385E290E025E230E0F90120810F
:1008C000207FFC01208385E290E025E230E0F90101
:1008D0002081422F2B81222F30E0098002C03595E4
:1008E00027950A94E2F72170242BFC01208385E2EE
:1008F00090E025E230E0F90120812860FC012083AE
:1009000089819A8101969A83898389819A8108973E
:1009100044F285E290E025E230E0F9012081246094
:10092000FC01208385E290E025E230E0F90120819E
:10093000207CFC01208300000F900F900F900F90FF
:10094000DF91CF910895CF93DF9300D01F92CDB761
:10095000DEB78B838BE290E02BE230E0F90120815F
:100960002260FC0120831A82198234C08BE290E05D
:100970002BE230E0F90120812061FC0120838BE231
:1009800090E02BE230E0F9012081207FFC01208300
:100990008BE290E02BE230E0F9012081422F2B81A5
:1009A000222F30E0098002C0359527950A94E2F79E
:1009B0002170242BFC0120838BE290E02BE230E0BD
:1009C000F90120812860FC01208389819A810196A8
:1009D0009A83898389819A81089744F28BE290E017
:1009E0002BE230E0F90120812460FC0120838BE2BE
:1009F00090E02BE230E0F9012081207CFC01208393
:100A000000000F900F900F90DF91CF910895CF933A
:100A1000DF9300D000D0CDB7DEB79C838B8388E70F
:100A200090E0FC01808191819A8389838B819C81F4
:100A3000892B19F01C821B8201C000008B819C81D4
:100A4000892B09F0E2C080911A018130E9F48CE72A
:100A500090E02CE730E0F9012081207E30911A01EE
:100A6000232BFC01208389819A81CC01A0E0B0E096
:100A70008093340190933501A0933601B0933701F0
:100A800082E080931A0120C080911A018230E1F443
:100A90008CE790E02CE730E0F9012081207E309156
:100AA0001A01232BFC01208389819A81CC01A0E0CB
:100AB000B0E08093380190933901A0933A01B0934C
:100AC0003B0181E080931A018091340190913501BE
:100AD000A0913601B09137018F3E9340A105B10539
:100AE00060F080911A01813041F4809133018823B4
:100AF00021F484E0809333017FC080913401909190
:100B00003501A0913601B09137018097A105B1055B
:100B100060F480911A01813041F48091330188237F
:100B200021F488E08093330167C08091380190916F
:100B30003901A0913A01B0913B018F3E9340A1054C
:100B4000B10560F080911A01823041F48091330147
:100B5000882321F482E0809333014EC080913801D4
:100B600090913901A0913A01B0913B018097A10584
:100B7000B10560F480911A01823041F48091330113
:100B8000882321F481E08093330136C080913401C1
:100B900090913501A0913601B09137018B3F9105BD
:100BA000A105B10548F18091340190913501A091E2
:100BB0003601B09137018E3E9240A105B105E0F4B7
:100BC0008091380190913901A0913A01B0913B0197
:100BD0008B3F9105A105B10578F080913801909186
:100BE0003901A0913A01B0913B018E3E9240A1059E
:100BF000B10510F41092330180913301882321F064
:100C0000809133010E94330300008B819C810F90FF
:100C10000F900F900F90DF91CF910895CF93DF93B6
:100C200000D000D000D0CDB7DEB79E838D830E9468
:100C3000C4029C838B838B81809317018C8180936A
:100C400016019091180180911901692F0E94940357
:100C5000882361F181E390E00E94BE000E94F608C3
:100C600087709078992324F40197886F9F6F01967D
:100C70009C0181E090E002C0880F991F2A95E2F75D
:100C8000809319010E94F60887709078992324F4C4
:100C90000197886F9F6F01969C0181E090E002C0F0
:100CA000880F991F2A95E2F78093180190911801F7
:100CB00080911901692F0E949403882F90E0292FB9
:100CC0002F938F9385E291E0892F8F9385E291E0B6
:100CD0008F938A818F9389818F930E9405090F904A
:100CE0000F900F900F900F900F9089819A81BC0107
:100CF00081E00E94EE008D819E8126960FB6F894C9
:100D0000DEBF0FBECDBFDF91CF910895CF93DF93AC
:100D100000D0CDB7DEB79A838983809116010E94F7
:100D20003B04809117010E94A30480E00E943B04D1
:100D300080E00E94A304809118010E943B048091EE
:100D400019010E94A30480E00E943B0480E00E94FD
:100D5000A30489819A810F900F90DF91CF9108951C
:100D60000F931F93CF93DF93CDB7DEB72F970FB6B7
:100D7000F894DEBF0FBECDBF81E290E0FC0110828F
:100D800082E290E02FEFFC01208384E290E02FEFDD
:100D9000FC01208385E290E0FC01108287E290E074
:100DA0002FEFFC01208388E290E0FC0110828AE2B0
:100DB00090E02FEFFC0120838BE290E0FC01108299
:100DC0000E942A040E9472000E9467000E948D0205
:100DD00080E090E00E9476080E94FA0886E0E8E24F
:100DE000F1E0DE011A9601900D928A95E1F783E019
:100DF00090E09F838E8381E090E0998788871092AE
:100E00003C0188859985880F991FCC01A0E0B0E04E
:100E100080933D0190933E01A0933F01B093400128
:100E200080913D0190913E01A0913F01B091400120
:100E30008093410190934201A0934301B0934401F8
:100E400087E095E090934601809345011092470119
:100E50004885598528EE33E0429FC001439F900D9D
:100E6000529F900D1124CC01A0E0B0E08093480186
:100E700090934901A0934A01B0934B01809148019E
:100E800090914901A0914A01B0914B0180934C018E
:100E900090934D01A0934E01B0934F018EE096E0E8
:100EA0009093510180935001109252018885998549
:100EB000CC01A0E0B0E08093530190935401A09343
:100EC0005501B09356018091530190915401A09126
:100ED0005501B09156018093570190935801A0930A
:100EE0005901B0935A0186E896E090935C01809393
:100EF0005B018A859B85FC0181819281A381B481FC
:100F00008A839B83AC83BD8381E0898324C08981EC
:100F1000882F90E0880F991F9E012F5F3F4F820F0F
:100F2000931F0996FC0180819181FC01218132810E
:100F3000438154818A819B81AC81BD81BC01CD01FB
:100F40000E944002DC01CB018A839B83AC83BD837A
:100F500089818F5F89838981282F30E08E819F81ED
:100F600028173907A0F28A819B81AC81BD81BC0121
:100F7000CD010E9462010E9490011982A6C0898160
:100F8000882F90E0880F991F9E012F5F3F4F820F9F
:100F9000931F0996FC0180819181FC012581368196
:100FA000478150858981882F90E0880F991FBE0165
:100FB0006F5F7F4F860F971F0996FC01808191819B
:100FC000FC0181819281A381B481281739074A07E6
:100FD0005B0709F049C08981882F90E0880F991F2D
:100FE0009E012F5F3F4F820F931F0996FC010081E6
:100FF00011818981882F90E0880F991F9E012F5FB2
:101000003F4F820F931F0996FC0180819181FC0163
:10101000218532858981882F90E0880F991FAE0144
:101020004F5F5F4F840F951F0996FC01808191816E
:10103000FC018081082E000C990BF9010995F8013B
:1010400080838981882F90E0880F991F9E012F5FF0
:101050003F4F820F931F0996FC0180819181FC0113
:1010600015821682178210868981882F90E0880F5A
:10107000991F9E012F5F3F4F820F931F0996FC011E
:10108000608171818981882F90E0880F991F9E016E
:101090002F5F3F4F820F931F0996FC018081918142
:1010A000FC0125813681478150858A819B81AC81F5
:1010B000BD81820F931FA41FB51FFB0185839683FB
:1010C000A783B08789818F5F89838981282F30E04A
:1010D0008E819F812817390708F451CF0000809135
:1010E0002E018823E1F310922E0147CFFC010FB6A9
:1010F000F8946091DD017091DE018091DF019091A3
:10110000E0010FBE309721F0608371838283938367
:101110000895A1E21A2EAA1BBB1BFD010DC0AA1F38
:10112000BB1FEE1FFF1FA217B307E407F50720F050
:10113000A21BB30BE40BF50B661F771F881F991FCB
:101140001A9469F760957095809590959B01AC0114
:10115000BD01CF0108958F929F92AF92BF92CF921F
:10116000DF92EF92FF92CF93DF93EC016881798158
:101170008A819B81611571058105910521F464E2E5
:1011800079ED8BE597E02DE133EF41E050E00E94EF
:10119000EE0B49015A019B01AC01A7EAB1E40E94A0
:1011A0000D0C6B017C01ACEEB4EFA50194010E9423
:1011B0001B0CDC01CB018C0D9D1DAE1DBF1DB7FFAF
:1011C00003C00197A109B04888839983AA83BB8390
:1011D0009F77DF91CF91FF90EF90DF90CF90BF90FE
:1011E000AF909F908F9008950C94AB088BE191E0A5
:1011F0000C94AB08A0E0B0E080931B0190931C011D
:10120000A0931D01B0931E0108950F931F93CF93D8
:10121000DF93CDB7DEB72E970FB6F894DEBF0FBEC3
:10122000CDBF0D891E8986E08C831A8309838FEFD9
:101230009FE79E838D83AE01475E5F4F6F89788DF8
:10124000CE0101960E943409EF81F885E00FF11F6D
:1012500010822E960FB6F894DEBF0FBECDBFDF9181
:10126000CF911F910F9108952F923F924F925F92CD
:101270006F927F928F929F92AF92BF92CF92DF92A6
:10128000EF92FF920F931F93CF93DF93CDB7DEB70B
:101290002B970FB6F894DEBF0FBECDBF6C017B015C
:1012A0008A01FC0117821682838181FFCCC1CE01A5
:1012B00001963C01F6019381F70193FD859193FF1F
:1012C00081917F01882309F4BAC1853239F493FDF5
:1012D000859193FF81917F01853229F4B60190E0D9
:1012E0000E94540BE7CF912C212C312CFFE1F315F8
:1012F000D8F08B3279F038F4803279F08332A1F46F
:10130000232D20611DC08D3261F0803369F4232DBF
:10131000216016C0832D8260382EE32DE4603E2EBE
:101320002AC0F32DF8601DC037FC2DC020ED280F1A
:101330002A3040F08E32B9F436FC81C1232D20646E
:10134000322E19C036FE06C08AE0989E200D112468
:10135000922E11C0EAE02E9E200D1124222EF32D94
:10136000F0623F2E08C08C3621F4832D8068382E21
:1013700002C0883641F4F70193FD859193FF819176
:101380007F018111B3CF982F9F7D9554933028F41E
:101390000C5F1F4F9FE399830DC0833631F0833775
:1013A00071F0833509F059C021C0F801808189832B
:1013B0000E5F1F4F88248394912C530113C0280182
:1013C000F2E04F0E511CF801A080B18036FE03C040
:1013D000692D70E002C06FEF7FEFC5010E94490BDD
:1013E0004C018201F32DFF773F2E16C0280122E029
:1013F000420E511CF801A080B18036FE03C0692D59
:1014000070E002C06FEF7FEFC5010E943E0B4C0100
:10141000F32DF0683F2E820133FC1BC0822D90E03B
:1014200088169906B0F4B60180E290E00E94540B51
:101430002A94F4CFF50137FC859137FE81915F0145
:10144000B60190E00E94540B21102A9421E0821AE8
:1014500091088114910471F7E8C0843611F089363F
:1014600041F5F80137FE07C0608171818281938167
:101470000C5F1F4F08C060817181072E000C880B24
:10148000990B0E5F1F4FF32DFF763F2E97FF09C07C
:1014900090958095709561957F4F8F4F9F4FF06825
:1014A0003F2E2AE030E0A3010E94900B882E861880
:1014B00045C0853731F4232D2F7EB22E2AE030E04F
:1014C00025C0932D997FB92E8F36C1F018F4883539
:1014D00079F0B5C0803719F0883721F0B0C0E92F16
:1014E000E061BE2EB4FE0DC0FB2DF460BF2E09C01E
:1014F00034FE0AC0292F2660B22E06C028E030E054
:1015000005C020E130E002C020E132E0F801B7FE82
:1015100007C060817181828193810C5F1F4F06C07B
:101520006081718180E090E00E5F1F4FA3010E94F7
:10153000900B882E8618FB2DFF773F2E36FE0DC0B0
:10154000232D2E7FA22E891458F434FE0BC032FCBA
:1015500009C0832D8E7EA82E05C0B82CA32C03C0F5
:10156000B82C01C0B92CA4FE0FC0FE01E80DF11D7E
:101570008081803321F49A2D997EA92E09C0A2FE84
:1015800006C0B394B39404C08A2D867809F0B3944E
:10159000A3FC11C0A0FE06C0B21488F4280C922C43
:1015A0009B180EC0B21460F4B60180E290E00E9475
:1015B000540BB394F7CFB21418F42B1802C0982C24
:1015C000212CA4FE10C0B60180E390E00E94540BD1
:1015D000A2FE17C0A1FC03C088E790E002C088E526
:1015E00090E0B6010CC08A2D867859F0A1FE02C0A9
:1015F0008BE201C080E2A7FC8DE2B60190E00E9480
:10160000540B891438F4B60180E390E00E94540B27
:101610009A94F7CF8A94F301E80DF11D8081B60109
:1016200090E00E94540B8110F5CF222009F442CEA5
:10163000B60180E290E00E94540B2A94F6CFF601A6
:101640008681978102C08FEF9FEF2B960FB6F8949B
:10165000DEBF0FBECDBFDF91CF911F910F91FF90E5
:10166000EF90DF90CF90BF90AF909F908F907F9042
:101670006F905F904F903F902F900895FC010590E0
:10168000615070400110D8F7809590958E0F9F1F84
:101690000895FC016150704001900110D8F78095C9
:1016A00090958E0F9F1F08950F931F93CF93DF93F5
:1016B000FB01238121FD03C08FEF9FEF2CC022FF90
:1016C00016C046815781248135814217530744F45F
:1016D000A081B1819D012F5F3F4F318320838C9387
:1016E000268137812F5F3F4F3783268314C08B01BC
:1016F000EC01FB010084F185E02D0995892BE1F6D1
:10170000D80116968D919C911797019617969C93E8
:101710008E931697CE01DF91CF911F910F9108956F
:10172000FA01AA27283051F1203181F1E8946F9312
:101730006E7F6E5F7F4F8F4F9F4FAF4FB1E03ED0B8
:10174000B4E03CD0670F781F891F9A1FA11D680F56
:10175000791F8A1F911DA11D6A0F711D811D911D89
:10176000A11D20D009F468943F912AE0269F1124FE
:101770003019305D3193DEF6CF010895462F477062
:10178000405D4193B3E00FD0C9F7F6CF462F4F70BD
:10179000405D4A3318F0495D31FD4052419302D01B
:1017A000A9F7EACFB4E0A6959795879577956795C1
:1017B000BA95C9F700976105710508959B01AC01C1
:1017C0000A2E06945795479537952795BA95C9F7E8
:1017D000620F731F841F951FA01D0895052E97FB90
:1017E0001EF400940E94050C57FD07D00E94890842
:1017F00007FC03D04EF40C94050C509540953095A1
:1018000021953F4F4F4F5F4F08959095809570956C
:1018100061957F4F8F4F9F4F08950E94200CA59F89
:10182000900DB49F900DA49F800D911D11240895DB
:10183000B7FF0C940D0C0E940D0C821B930B0895A6
:10184000A29FB001B39FC001A39F700D811D112401
:10185000911DB29F700D811D1124911D0895F89462
:02186000FFCFB8
:101862000100000010080101000000020000000059
:1018720001040000000008102010010100000045D2
:0E18820052524F52002564003C0147015201B2
:00000001FF
