:100000000C9446000C9465000C9465000C946500FB
:100010000C9465000C9465000C9465000C946500CC
:100020000C9465000C9465000C9465000C946500BC
:100030000C9465000C94DE010C9465000C94650032
:100040000C9465000C9465000C9465000C9465009C
:100050000C9465000C9465000C9465000C9465008C
:100060000C9465000C9465000C9465000C9465007C
:100070000C9465000C9465000C9465000C9465006C
:100080000C9465000C9465000C94650011241FBE4F
:10009000CFEFD0E4DEBFCDBF11E0A0E0B1E0EEE1F4
:1000A000FDE100E00BBF02C007900D92AA33B1073B
:1000B000D9F722E0AAE3B1E001C01D92AF30B20748
:1000C000E1F70E94BF080C948D0E0C940000CF93B2
:1000D000DF93CDB7DEB781E00E948E000000DF9194
:1000E000CF910895CF93DF93CDB7DEB784E690E04C
:1000F0000E94320188E30E948E0086E00E948E00FA
:100100008FE00E948E0081E00E948E008AE090E0E5
:100110000E9432010000DF91CF910895CF93DF93C9
:100120001F92CDB7DEB789838BE290E02BE230E0FF
:10013000F90120812F7BFC01208388E290E0298156
:10014000FC0120838BE290E02BE230E0F90120817A
:100150002068FC01208300008BE290E02BE230E07D
:10016000F90120812F77FC01208382E090E00E943A
:10017000320100000F90DF91CF910895CF93DF936C
:100180001F92CDB7DEB789838BE290E02BE230E09F
:10019000F90120812064FC01208388E290E029811C
:1001A000FC0120838BE290E02BE230E0F90120811A
:1001B0002068FC01208300008BE290E02BE230E01D
:1001C000F90120812F77FC01208381E090E00E94DB
:1001D000320100000F90DF91CF910895CF93DF930C
:1001E00000D000D0CDB7DEB78A837C836B830E94BA
:1001F00067008A81898311C0898191E0980F998372
:100200000E941B018B819C819C012F5F3F4F3C838F
:100210002B83FC0180810E94BE008B819C81FC01AC
:100220008081882349F700000F900F900F900F9066
:10023000DF91CF910895CF93DF931F92CDB7DEB7B3
:1002400089838981813128F4898181580E948E00B7
:1002500004C0898181550E948E0000000F90DF91BB
:10026000CF910895CF93DF9300D000D000D0CDB7C9
:10027000DEB79E838D831A82198213C01C821B8273
:1002800006C000008B819C8101969C838B838B81AF
:100290009C8187309340ACF389819A8101969A833F
:1002A000898329813A818D819E812817390734F30A
:1002B000000026960FB6F894DEBF0FBECDBFDF91CB
:1002C000CF910895CF93DF9300D000D0CDB7DEB7A4
:1002D00069837A838B839C8389819A81AB81BC817A
:1002E0008093000190930101A0930201B093030158
:1002F0008091000190910101A0910201B091030150
:1003000080933B0190933C01A0933D01B0933E014B
:1003100000000F900F900F900F90DF91CF910895F4
:10032000CF93DF93CDB7DEB781E890E02BE0FC01FF
:10033000208388E890E02DE730E0FC0131832083C2
:100340008FE690E022E0FC01208384E890E0FC014D
:10035000118210828091000190910101A09102010F
:10036000B091030180933B0190933C01A0933D0128
:10037000B0933E018FE590E02FE530E0F901208158
:100380002068FC0120830000DF91CF910895CF9376
:10039000DF93CDB7DEB781E890E0FC01108200006A
:1003A000DF91CF910895CF93DF93CDB7DEB781E092
:1003B00080933A010000DF91CF9108951F920F9230
:1003C00000905F000F92112400905B000F922F931A
:1003D0003F934F935F936F937F938F939F93AF93CD
:1003E000BF93EF93FF93CF93DF93CDB7DEB78091A9
:1003F0003B0190913C01A0913D01B0913E010197DC
:10040000A109B10980933B0190933C01A0933D0168
:10041000B0933E0180913B0190913C01A0913D0140
:10042000B0913E01892B8A2B8B2B91F40E94D30132
:100430008091000190910101A0910201B09103010E
:1004400080933B0190933C01A0933D01B0933E010A
:100450000000DF91CF91FF91EF91BF91AF919F91FC
:100460008F917F916F915F914F913F912F910F905D
:1004700000925B000F9000925F000F901F90189504
:10048000CF93DF93CDB7DEB72C970FB6F894DEBFCE
:100490000FBECDBF6D837E838F83988729873A8770
:1004A0004B875C878D819E81AF81B88529853A8590
:1004B0004B855C85BC01CD010E94E70ADC01CB01C4
:1004C00089839A83AB83BC8389819A81AB81BC8108
:1004D000892B8A2B8B2B29F489859A85AB85BC8542
:1004E00011C089859A85AB85BC858D839E83AF833A
:1004F000B88789819A81AB81BC8189879A87AB87CC
:10050000BC87D0CFBC01CD012C960FB6F894DEBFCE
:100510000FBECDBFDF91CF910895CF93DF93CDB7BD
:10052000DEB7C058D1090FB6F894DEBF0FBECDBFFD
:1005300080E18093040188E08093050120E8CE01EA
:100540000196FC01322F11923A95E9F7809104014E
:10055000909105019A83898320E8CE010196FC01E0
:10056000ABE8B1E001900D922A95E1F781E080932C
:1005700006010000C058DF4F0FB6F894DEBF0FBE73
:10058000CDBFDF91CF910895CF93DF9300D000D0FE
:100590001F92CDB7DEB7198280918B0190918C01AB
:1005A0009B838A8380910701882F90E08230910598
:1005B000C1F0833091051CF40197C9F01EC084304E
:1005C000910549F0089709F018C080918B01869534
:1005D00080938B0112C080918B01880F80938B01D7
:1005E0000CC080918C01880F80938C0106C0809193
:1005F0008C01869580938C01000080918B019091F5
:100600008C0190930501809304011C821D82198244
:100610001BC02C818981882F90E0880F991F8557F6
:100620009E4FFC018081822B8C832D818981882FB4
:1006300090E0880F991F84579E4FFC018081822B88
:100640008D8389818F5F89838091060199819817B5
:1006500000F38C819D810F900F900F900F900F9061
:10066000DF91CF910895CF93DF931F92CDB7DEB77F
:10067000898389818823B1F180910701882F90E0D7
:1006800082309105D1F0833091051CF40197E1F09F
:1006900029C08430910551F0089709F023C0898161
:1006A0008430C9F089818093070115C08981883021
:1006B000A1F089818093070110C08981813079F090
:1006C0008981809307010BC08981823051F0898133
:1006D0008093070106C0000005C0000003C00000B1
:1006E00001C0000000000F90DF91CF910895CF93DB
:1006F000DF93CDB7DEB780910501882321F080918B
:100700000401882319F481E090E002C080E090E0C9
:10071000DF91CF910895CF93DF9300D0CDB7DEB7AF
:1007200089836A8390918B018981981741F4909114
:100730008C018A81981719F481E090E002C080E072
:1007400090E00F900F90DF91CF910895CF93DF93BA
:1007500000D0CDB7DEB7809106018F3311F481E070
:1007600042C0809106018130C1F580910701882F38
:1007700090E082309105D9F0833091051CF4019707
:10078000F1F025C08430910551F0089701F5809172
:100790000401880F8983809105018A831EC080919E
:1007A000040186958983809105018A8316C0809112
:1007B000040189838091050186958A830EC080910A
:1007C0000401898380910501880F8A8306C06FE147
:1007D00071E081E00E94EE000000809106018F5FD1
:1007E0008093060180E00F900F90DF91CF910895E4
:1007F000CF93DF9300D01F92CDB7DEB789837B8381
:100800006A8389818A3031F48A819B81BC018DE0C1
:100810000E94F80380EC90E0FC018081882F90E03A
:1008200080729927892BB1F386EC90E02981FC0135
:10083000208380E090E00F900F900F90DF91CF9198
:100840000895CF93DF93CDB7DEB78AE790E02AE72C
:1008500030E0F9012081206EFC0120830000DF914F
:10086000CF910895CF93DF9300D000D0CDB7DEB7FE
:100870008C838C8180958B8385E290E025E230E04B
:10088000F90120812260FC0120831A82198234C080
:1008900085E290E025E230E0F90120812061FC0151
:1008A000208385E290E025E230E0F9012081207F7D
:1008B000FC01208385E290E025E230E0F90120810F
:1008C000422F2B81222F30E0098002C035952795D9
:1008D0000A94E2F72170242BFC01208385E290E04A
:1008E00025E230E0F90120812860FC012083898124
:1008F0009A8101969A83898389819A81089744F223
:1009000085E290E025E230E0F90120812460FC01DD
:10091000208385E290E025E230E0F9012081207C0F
:10092000FC01208300000F900F900F900F90DF913B
:10093000CF910895CF93DF9300D01F92CDB7DEB74C
:100940008B838BE290E02BE230E0F9012081226082
:10095000FC0120831A82198234C08BE290E02BE2E2
:1009600030E0F90120812061FC0120838BE290E0DE
:100970002BE230E0F9012081207FFC0120838BE213
:1009800090E02BE230E0F9012081422F2B81222FD1
:1009900030E0098002C0359527950A94E2F721706E
:1009A000242BFC0120838BE290E02BE230E0F90164
:1009B00020812860FC01208389819A8101969A8395
:1009C000898389819A81089744F28BE290E02BE237
:1009D00030E0F90120812460FC0120838BE290E06B
:1009E0002BE230E0F9012081207CFC012083000013
:1009F0000F900F900F90DF91CF910895CF93DF93D9
:100A000000D000D000D0CDB7DEB79E838D8388E7BD
:100A100090E0FC01808191819A8389838D819E8100
:100A2000892B19F01E821D8201C000008D819E81DC
:100A3000892B09F006C280911A018130E9F48CE714
:100A400090E02CE730E0F9012081207E30911A01FE
:100A5000232BFC01208389819A81CC01A0E0B0E0A6
:100A60008093440190934501A0934601B0934701C0
:100A700082E080931A0162C080911A018230E9F409
:100A80008CE790E02CE730E0F9012081207E309166
:100A90001A01232BFC01208389819A81CC01A0E0DB
:100AA000B0E08093480190934901A0934A01B0932C
:100AB0004B0186E080931A0141C080911A01863073
:100AC000E9F48CE790E02CE730E0F9012081207E0A
:100AD00030911A01232BFC01208389819A81CC015A
:100AE000A0E0B0E080934C0190934D01A0934E01A3
:100AF000B0934F0187E080931A0120C080911A01C2
:100B00008730E1F48CE790E02CE730E0F9012081B8
:100B1000207E30911A01232BFC01208389819A8148
:100B2000CC01A0E0B0E08093500190935101A093DC
:100B30005201B093530181E080931A0180914C01DE
:100B400090914D01A0914E01B0914F018F3E934085
:100B5000A105B10560F080911A01813041F48091C6
:100B60004201882321F484E0809342017FC0809178
:100B70004C0190914D01A0914E01B0914F01809791
:100B8000A105B10560F480911A01813041F4809192
:100B90004201882321F488E08093420167C080915C
:100BA000480190914901A0914A01B0914B018F3EBB
:100BB0009340A105B10560F080911A01823041F4A3
:100BC00080914201882321F482E0809342014EC04B
:100BD0008091480190914901A0914A01B0914B0147
:100BE0008097A105B10560F480911A01823041F42B
:100BF00080914201882321F481E08093420136C034
:100C000080914C0190914D01A0914E01B0914F0106
:100C10008B3F9105A105B10548F180914C01909160
:100C20004D01A0914E01B0914F018E3E9240A10521
:100C3000B105E0F48091480190914901A0914A01E9
:100C4000B0914B018B3F9105A105B10578F08091E2
:100C5000480190914901A0914A01B0914B018E3E0B
:100C60009240A105B10510F4109242018091420119
:100C7000882321F0809142010E9433038091440136
:100C800090914501A0914601B09147018F3E93405C
:100C9000A105B105C0F080911A018630A1F48091C0
:100CA0004301882381F480911701803821F08091DD
:100CB0001701880F02C0809117018093170188E007
:100CC00080934301A3C08091440190914501A0917C
:100CD0004601B09147018097A105B105C0F480910C
:100CE0001A018630A1F480914301882381F4809118
:100CF0001701813021F080911701869502C0809103
:100D000017018093170184E0809343017FC0809195
:100D1000500190915101A0915201B09153018F3E29
:100D20009340A105B105C0F080911A018730A1F46C
:100D300080914301882381F480911601803821F04D
:100D400080911601880F02C08091160180931601D0
:100D500082E0809343015AC08091500190915101EB
:100D6000A0915201B09153018097A105B105C0F443
:100D700080911A018730A1F480914301882381F486
:100D800080911601813021F080911601869502C074
:100D9000809116018093160181E08093430136C053
:100DA0008091440190914501A0914601B091470185
:100DB0008B3F9105A105B10548F1809144019091C7
:100DC0004501A0914601B09147018E3E9240A10598
:100DD000B105E0F48091500190915101A091520130
:100DE000B09153018B3F9105A105B10578F0809139
:100DF000500190915101A0915201B09153018E3E4A
:100E00009240A105B10510F4109243018091420176
:100E1000882F90E0292F2F938F9385E291E0892FDF
:100E20008F9385E291E08F938C818F938B818F9349
:100E30000E94630B0F900F900F900F900F900F90E8
:100E400000008D819E8126960FB6F894DEBF0FBEFE
:100E5000CDBFDF91CF910895CF93DF9300D000D025
:100E600000D0CDB7DEB79E838D8380913F0188236C
:100E700009F066C00E94C4029C838B838B8180939F
:100E800019018C81809318019091160180911701AE
:100E9000692F0E948B03882369F1809141018F5F44
:100EA000809341010E94540B87709078992324F419
:100EB0000197886F9F6F01969C0181E090E002C0CE
:100EC000880F991F2A95E2F7809317010E94540B0F
:100ED00087709078992324F40197886F9F6F01960B
:100EE0009C0181E090E002C0880F991F2A95E2F7EB
:100EF000809316010E947703882319F081E0809384
:100F000040019091160180911701692F0E948B0377
:100F1000882F90E0292F2F938F9385E291E0892FDE
:100F20008F9385E291E08F938A818F9389818F934C
:100F30000E94630B0F900F900F900F900F900F90E7
:100F40008D819E8126960FB6F894DEBF0FBECDBF71
:100F5000DF91CF910895CF93DF9300D000D0CDB72C
:100F6000DEB79C838B83809118010E9432048091AC
:100F700019010E949A0480E00E94320480E00E94DD
:100F80009A04809116010E943204809117010E94F8
:100F90009A0480E00E94320480E00E949A048091CA
:100FA0004101882F90E0292F2F938F9385E291E0C4
:100FB000892F8F9385E291E08F938A818F93898126
:100FC0008F930E94630B0F900F900F900F900F90D4
:100FD0000F9089819A81BC0181E00E94EE0080918E
:100FE0004001813029F468E271E081E00E94EE0066
:100FF0008B819C810F900F900F900F90DF91CF917C
:101000000895CF93DF9300D01F92CDB7DEB79B83B7
:101010008A8380E290E0FC018081882F90E08170DB
:10102000992721E0892B09F020E029838A819B817F
:1010300081309105A1F0823091051CF4892B39F0A3
:101040002BC08230910589F00397B9F025C08981C2
:101050008823D9F083E090E09B838A8316C089813E
:101060008823A9F41B821A8212C08981882389F0FF
:1010700081E090E09B838A830CC08981882359F4A6
:1010800082E090E09B838A8306C0000005C00000D8
:1010900003C0000001C000008A819B81813091055E
:1010A00079F0823091051CF4892B39F014C082301C
:1010B000910549F0039759F00EC010923F010BC003
:1010C00010923F0108C081E080933F0104C081E09D
:1010D00080933F0100008A819B810F900F900F90B9
:1010E000DF91CF910895CF93DF9300D01F92CDB7BA
:1010F000DEB79B838A8380E290E0FC01808180954B
:10110000857089838A819B81009719F0019749F046
:1011100011C08981882359F081E090E09B838A8304
:1011200006C08981882329F41B821A8202C000002C
:1011300001C000008A819B810097C1F0019709F0EE
:1011400016C088E08093180180E180931901109205
:101150003F011092400180E28093160180E180936C
:101160001701109242011092430101C000008A81D0
:101170009B810F900F900F90DF91CF9108950F9367
:101180001F93CF93DF93CDB7DEB761970FB6F89477
:10119000DEBF0FBECDBF81E290E0FC01108282E293
:1011A00090E02FEFFC01208384E290E02FEFFC0120
:1011B000208385E290E0FC01108287E290E02FEF2F
:1011C000FC01208388E290E0FC0110828AE290E03A
:1011D0002FEFFC0120838BE290E0FC0110820E9443
:1011E00021040E9472000E9467000E948D0280E02C
:1011F00090E00E94D40A0E94580B88E0E2E3F1E0FC
:10120000DE011A9601900D928A95E1F784E090E054
:101210009F838E8381E090E09987888710925401A4
:1012200028853985C901880F991F880F991F820F5A
:10123000931FCC01A0E0B0E080935501909356013C
:10124000A0935701B0935801809155019091560198
:10125000A0915701B09158018093590190935A0180
:10126000A0935B01B0935C018EEF94E090935E01DC
:1012700080935D0110925F014885598524EF31E02C
:10128000429FC001439F900D529F900D1124CC01AD
:10129000A0E0B0E08093600190936101A0936201AF
:1012A000B09363018091600190916101A09162010E
:1012B000B09163018093640190936501A0936601EE
:1012C000B09367018CE297E0909369018093680185
:1012D00010926A0188859985CC01A0E0B0E08093E6
:1012E0006B0190936C01A0936D01B0936E0180919E
:1012F0006B0190916C01A0916D01B0916E01809392
:101300006F0190937001A0937101B09372018BEA09
:1013100097E0909374018093730110927501888512
:101320009985CC01A0E0B0E080937601909377019D
:10133000A0937801B0937901809176019091770123
:10134000A0917801B091790180937A0190937B010B
:10135000A0937C01B0937D0181E098E090937F01A0
:1013600080937E011092800188859985CC01A0E050
:10137000B0E08093810190938201A0938301B093A8
:1013800084018091810190918201A0918301B091AB
:1013900084018093850190938601A0938701B09387
:1013A000880183E798E090938A01809389018A8578
:1013B0009B85FC0181819281A381B4818A839B8377
:1013C000AC83BD8381E0898324C08981882F90E02C
:1013D000880F991F9E012F5F3F4F820F931F099621
:1013E000FC0180819181FC01218132814381548102
:1013F0008A819B81AC81BD81BC01CD010E944002EC
:10140000DC01CB018A839B83AC83BD8389818F5FA1
:1014100089838981282F30E08E819F8128173907A1
:10142000A0F28A819B81AC81BD81BC01CD010E946B
:1014300062010E9490011982A6C08981882F90E0E4
:10144000880F991F9E012F5F3F4F820F931F0996B0
:10145000FC0180819181FC01258136814781508585
:101460008981882F90E0880F991FBE016F5F7F4FA1
:10147000860F971F0996FC0180819181FC01818173
:101480009281A381B481281739074A075B0709F0C5
:1014900049C08981882F90E0880F991F9E012F5F96
:1014A0003F4F820F931F0996FC01008111818981B2
:1014B000882F90E0880F991F9E012F5F3F4F820F6A
:1014C000931F0996FC0180819181FC012185328561
:1014D0008981882F90E0880F991FAE014F5F5F4F81
:1014E000840F951F0996FC0180819181FC01808108
:1014F000082E000C990BF9010995F8018083898168
:10150000882F90E0880F991F9E012F5F3F4F820F19
:10151000931F0996FC0180819181FC01158216823E
:10152000178210868981882F90E0880F991F9E016D
:101530002F5F3F4F820F931F0996FC0160817181DD
:101540008981882F90E0880F991F9E012F5F3F4F60
:10155000820F931F0996FC0180819181FC012581F6
:101560003681478150858A819B81AC81BD81820F04
:10157000931FA41FB51FFB0185839683A783B087A4
:1015800089818F5F89838981282F30E08E819F81B7
:101590002817390708F451CF000080913A018823B9
:1015A000E1F310923A0147CFFC010FB6F894609135
:1015B0000B0270910C0280910D0290910E020FBEF1
:1015C000309721F060837183828393830895A1E231
:1015D0001A2EAA1BBB1BFD010DC0AA1FBB1FEE1FAD
:1015E000FF1FA217B307E407F50720F0A21BB30BF8
:1015F000E40BF50B661F771F881F991F1A9469F774
:1016000060957095809590959B01AC01BD01CF01CF
:1016100008958F929F92AF92BF92CF92DF92EF92F6
:10162000FF92CF93DF93EC01688179818A819B815E
:10163000611571058105910521F464E279ED8BE571
:1016400097E02DE133EF41E050E00E944C0E49015C
:101650005A019B01AC01A7EAB1E40E946B0E6B0139
:101660007C01ACEEB4EFA50194010E94790EDC017F
:10167000CB018C0D9D1DAE1DBF1DB7FF03C0019793
:10168000A109B04888839983AA83BB839F77DF91A0
:10169000CF91FF90EF90DF90CF90BF90AF909F9051
:1016A0008F9008950C94090B8BE191E00C94090B39
:1016B000A0E0B0E080931B0190931C01A0931D015A
:1016C000B0931E0108950F931F93CF93DF93CDB76F
:1016D000DEB72E970FB6F894DEBF0FBECDBF0D89D3
:1016E0001E8986E08C831A8309838FEF9FE79E8390
:1016F0008D83AE01475E5F4F6F89788DCE01019675
:101700000E94920BEF81F885E00FF11F10822E9658
:101710000FB6F894DEBF0FBECDBFDF91CF911F9102
:101720000F9108952F923F924F925F926F927F9206
:101730008F929F92AF92BF92CF92DF92EF92FF92E1
:101740000F931F93CF93DF93CDB7DEB72B970FB6D1
:10175000F894DEBF0FBECDBF6C017B018A01FC0196
:1017600017821682838181FFCCC1CE0101963C0194
:10177000F6019381F70193FD859193FF81917F019C
:10178000882309F4BAC1853239F493FD859193FF1A
:1017900081917F01853229F4B60190E00E94B20D5B
:1017A000E7CF912C212C312CFFE1F315D8F08B32AF
:1017B00079F038F4803279F08332A1F4232D20615E
:1017C0001DC08D3261F0803369F4232D216016C075
:1017D000832D8260382EE32DE4603E2E2AC0F32D47
:1017E000F8601DC037FC2DC020ED280F2A3040F0D6
:1017F0008E32B9F436FC81C1232D2064322E19C0FB
:1018000036FE06C08AE0989E200D1124922E11C04B
:10181000EAE02E9E200D1124222EF32DF0623F2EA1
:1018200008C08C3621F4832D8068382E02C088369B
:1018300041F4F70193FD859193FF81917F0181111F
:10184000B3CF982F9F7D9554933028F40C5F1F4F92
:101850009FE399830DC0833631F0833771F0833570
:1018600009F059C021C0F801808189830E5F1F4FA4
:1018700088248394912C530113C02801F2E04F0E69
:10188000511CF801A080B18036FE03C0692D70E0C4
:1018900002C06FEF7FEFC5010E94A70D4C018201CE
:1018A000F32DFF773F2E16C0280122E0420E511C77
:1018B000F801A080B18036FE03C0692D70E002C03F
:1018C0006FEF7FEFC5010E949C0D4C01F32DF06876
:1018D0003F2E820133FC1BC0822D90E088169906B2
:1018E000B0F4B60180E290E00E94B20D2A94F4CFE9
:1018F000F50137FC859137FE81915F01B60190E0DB
:101900000E94B20D21102A9421E0821A91088114BC
:10191000910471F7E8C0843611F0893641F5F80179
:1019200037FE07C060817181828193810C5F1F4FF8
:1019300008C060817181072E000C880B990B0E5F27
:101940001F4FF32DFF763F2E97FF09C0909580958E
:10195000709561957F4F8F4F9F4FF0683F2E2AE023
:1019600030E0A3010E94EE0D882E861845C0853711
:1019700031F4232D2F7EB22E2AE030E025C0932DA6
:10198000997FB92E8F36C1F018F4883579F0B5C03B
:10199000803719F0883721F0B0C0E92FE061BE2E02
:1019A000B4FE0DC0FB2DF460BF2E09C034FE0AC08A
:1019B000292F2660B22E06C028E030E005C020E1C5
:1019C00030E002C020E132E0F801B7FE07C06081DC
:1019D0007181828193810C5F1F4F06C0608171818C
:1019E00080E090E00E5F1F4FA3010E94EE0D882E55
:1019F0008618FB2DFF773F2E36FE0DC0232D2E7F40
:101A0000A22E891458F434FE0BC032FC09C0832D79
:101A10008E7EA82E05C0B82CA32C03C0B82C01C004
:101A2000B92CA4FE0FC0FE01E80DF11D80818033AA
:101A300021F49A2D997EA92E09C0A2FE06C0B39466
:101A4000B39404C08A2D867809F0B394A3FC11C026
:101A5000A0FE06C0B21488F4280C922C9B180EC06D
:101A6000B21460F4B60180E290E00E94B20DB3942B
:101A7000F7CFB21418F42B1802C0982C212CA4FE16
:101A800010C0B60180E390E00E94B20DA2FE17C024
:101A9000A1FC03C088E790E002C088E590E0B601B1
:101AA0000CC08A2D867859F0A1FE02C08BE201C0DD
:101AB00080E2A7FC8DE2B60190E00E94B20D89148D
:101AC00038F4B60180E390E00E94B20D9A94F7CF0B
:101AD0008A94F301E80DF11D8081B60190E00E9427
:101AE000B20D8110F5CF222009F442CEB60180E27A
:101AF00090E00E94B20D2A94F6CFF601868197817C
:101B000002C08FEF9FEF2B960FB6F894DEBF0FBE8B
:101B1000CDBFDF91CF911F910F91FF90EF90DF909C
:101B2000CF90BF90AF909F908F907F906F905F907D
:101B30004F903F902F900895FC01059061507040A8
:101B40000110D8F7809590958E0F9F1F0895FC0186
:101B50006150704001900110D8F7809590958E0FDC
:101B60009F1F08950F931F93CF93DF93FB01238152
:101B700021FD03C08FEF9FEF2CC022FF16C04681CE
:101B80005781248135814217530744F4A081B181E4
:101B90009D012F5F3F4F318320838C9326813781B6
:101BA0002F5F3F4F3783268314C08B01EC01FB016D
:101BB0000084F185E02D0995892BE1F6D801169670
:101BC0008D919C911797019617969C938E931697DB
:101BD000CE01DF91CF911F910F910895FA01AA27AD
:101BE000283051F1203181F1E8946F936E7F6E5F60
:101BF0007F4F8F4F9F4FAF4FB1E03ED0B4E03CD00E
:101C0000670F781F891F9A1FA11D680F791F8A1FF0
:101C1000911DA11D6A0F711D811D911DA11D20D057
:101C200009F468943F912AE0269F11243019305D11
:101C30003193DEF6CF010895462F4770405D419302
:101C4000B3E00FD0C9F7F6CF462F4F70405D4A334F
:101C500018F0495D31FD4052419302D0A9F7EACF17
:101C6000B4E0A6959795879577956795BA95C9F746
:101C700000976105710508959B01AC010A2E069439
:101C80005795479537952795BA95C9F7620F731FF2
:101C9000841F951FA01D0895052E97FB1EF4009428
:101CA0000E94630E57FD07D00E94E70A07FC03D08D
:101CB0004EF40C94630E50954095309521953F4F0E
:101CC0004F4F5F4F089590958095709561957F4F28
:101CD0008F4F9F4F08950E947E0EA59F900DB49F39
:101CE000900DA49F800D911D11240895B7FF0C94B1
:101CF0006B0E0E946B0E821B930B0895A29FB00186
:101D0000B39FC001A39F700D811D1124911DB29F2F
:0E1D1000700D811D1124911D0895F894FFCFD0
:101D1E000100000010080101000000020000000098
:101D2E00F80300000000201008100101000000451B
:101D3E0052524F5200256400596F75204C4F534537
:0A1D4E00210054015F016A017501D4
:00000001FF
