:100000000C9446000C9465000C9465000C946500FB
:100010000C9465000C9465000C9465000C946500CC
:100020000C9465000C9465000C9465000C946500BC
:100030000C9465000C94DE010C9465000C94650032
:100040000C9465000C9465000C9465000C9465009C
:100050000C9465000C9465000C9465000C9465008C
:100060000C9465000C9465000C9465000C9465007C
:100070000C9465000C9465000C9465000C9465006C
:100080000C9465000C9465000C94650011241FBE4F
:10009000CFEFD0E4DEBFCDBF11E0A0E0B1E0ECEEE9
:1000A000FBE000E00BBF02C007900D92A431B10746
:1000B000D9F721E0A4E1B1E001C01D92AF32B2074F
:1000C000E1F70E9443040C94F4050C940000CF93D4
:1000D000DF93CDB7DEB781E00E948E000000DF9194
:1000E000CF910895CF93DF93CDB7DEB784E690E04C
:1000F0000E94320188E30E948E0086E00E948E00FA
:100100008FE00E948E0081E00E948E008AE090E0E5
:100110000E9432010000DF91CF910895CF93DF93C9
:100120001F92CDB7DEB789838BE290E02BE230E0FF
:10013000F90120812F7BFC01208388E290E0298156
:10014000FC0120838BE290E02BE230E0F90120817A
:100150002068FC01208300008BE290E02BE230E07D
:10016000F90120812F77FC01208382E090E00E943A
:10017000320100000F90DF91CF910895CF93DF936C
:100180001F92CDB7DEB789838BE290E02BE230E09F
:10019000F90120812064FC01208388E290E029811C
:1001A000FC0120838BE290E02BE230E0F90120811A
:1001B0002068FC01208300008BE290E02BE230E01D
:1001C000F90120812F77FC01208381E090E00E94DB
:1001D000320100000F90DF91CF910895CF93DF930C
:1001E00000D000D0CDB7DEB78A837C836B830E94BA
:1001F00067008A81898311C0898191E0980F998372
:100200000E941B018B819C819C012F5F3F4F3C838F
:100210002B83FC0180810E94BE008B819C81FC01AC
:100220008081882349F700000F900F900F900F9066
:10023000DF91CF910895CF93DF931F92CDB7DEB7B3
:1002400089838981813128F4898181580E948E00B7
:1002500004C0898181550E948E0000000F90DF91BB
:10026000CF910895CF93DF9300D000D000D0CDB7C9
:10027000DEB79E838D831A82198213C01C821B8273
:1002800006C000008B819C8101969C838B838B81AF
:100290009C8187309340ACF389819A8101969A833F
:1002A000898329813A818D819E812817390734F30A
:1002B000000026960FB6F894DEBF0FBECDBFDF91CB
:1002C000CF910895CF93DF9300D000D0CDB7DEB7A4
:1002D00069837A838B839C8389819A81AB81BC817A
:1002E0008093000190930101A0930201B093030158
:1002F0008091000190910101A0910201B091030150
:100300008093150190931601A0931701B0931801E3
:1003100000000F900F900F900F90DF91CF910895F4
:10032000CF93DF93CDB7DEB781E890E02BE0FC01FF
:10033000208388E890E02DE730E0FC0131832083C2
:100340008FE690E022E0FC01208384E890E0FC014D
:10035000118210828091000190910101A09102010F
:10036000B09103018093150190931601A09317019A
:10037000B09318018FE590E02FE530E0F90120817E
:100380002068FC0120830000DF91CF910895CF9376
:10039000DF93CDB7DEB781E890E0FC01108200006A
:1003A000DF91CF910895CF93DF93CDB7DEB781E092
:1003B000809314010000DF91CF9108951F920F9256
:1003C00000905F000F92112400905B000F922F931A
:1003D0003F934F935F936F937F938F939F93AF93CD
:1003E000BF93EF93FF93CF93DF93CDB7DEB78091A9
:1003F000150190911601A0911701B0911801019774
:10040000A109B1098093150190931601A0931701DA
:10041000B09318018091150190911601A0911701D8
:10042000B0911801892B8A2B8B2B91F40E94D30158
:100430008091000190910101A0910201B09103010E
:100440008093150190931601A0931701B0931801A2
:100450000000DF91CF91FF91EF91BF91AF919F91FC
:100460008F917F916F915F914F913F912F910F905D
:1004700000925B000F9000925F000F901F90189504
:10048000CF93DF93CDB7DEB72C970FB6F894DEBFCE
:100490000FBECDBF6D837E838F83988729873A8770
:1004A0004B875C878D819E81AF81B88529853A8590
:1004B0004B855C85BC01CD010E94D205DC01CB01DE
:1004C00089839A83AB83BC8389819A81AB81BC8108
:1004D000892B8A2B8B2B29F489859A85AB85BC8542
:1004E00011C089859A85AB85BC858D839E83AF833A
:1004F000B88789819A81AB81BC8189879A87AB87CC
:10050000BC87D0CFBC01CD012C960FB6F894DEBFCE
:100510000FBECDBFDF91CF910895CF93DF9300D071
:100520001F92CDB7DEB789837B836A8389818A3046
:1005300031F48A819B81BC018DE00E948D0280ECA8
:1005400090E0FC018081882F90E080729927892BB0
:10055000B1F386EC90E02981FC01208380E090E0FB
:100560000F900F900F90DF91CF910895CF93DF936D
:10057000CDB7DEB78AE790E02AE730E0F9012081C5
:10058000206EFC0120830000DF91CF910895CF936E
:10059000DF9300D000D0CDB7DEB78C838C818095FF
:1005A0008B8385E290E025E230E0F9012081226032
:1005B000FC0120831A82198234C085E290E025E292
:1005C00030E0F90120812061FC01208385E290E088
:1005D00025E230E0F9012081207FFC01208385E2C3
:1005E00090E025E230E0F9012081422F2B81222F7B
:1005F00030E0098002C0359527950A94E2F7217012
:10060000242BFC01208385E290E025E230E0F90113
:1006100020812860FC01208389819A8101969A8338
:10062000898389819A81089744F285E290E025E2E6
:1006300030E0F90120812460FC01208385E290E014
:1006400025E230E0F9012081207CFC0120830000BC
:100650000F900F900F900F90DF91CF910895CF934F
:10066000DF9300D01F92CDB7DEB78B838BE290E093
:100670002BE230E0F90120812260FC0120831A8204
:10068000198234C08BE290E02BE230E0F901208146
:100690002061FC0120838BE290E02BE230E0F90145
:1006A0002081207FFC0120838BE290E02BE230E070
:1006B000F9012081422F2B81222F30E0098002C0D6
:1006C000359527950A94E2F72170242BFC012083AD
:1006D0008BE290E02BE230E0F90120812860FC0100
:1006E000208389819A8101969A83898389819A815D
:1006F000089744F28BE290E02BE230E0F901208190
:100700002460FC0120838BE290E02BE230E0F901D1
:100710002081207CFC01208300000F900F900F901F
:10072000DF91CF910895CF93DF93CDB7DEB72897B0
:100730000FB6F894DEBF0FBECDBF98878F8388E7D2
:1007400090E0FC01808191819A8389838F819885D3
:10075000892B19F018861F8201C000008F819885AF
:10076000892B09F077C08CE790E021E0FC01208321
:1007700088E790E0FC01808191819C838B838CE7EA
:1007800090E022E0FC01208388E790E0FC0180817A
:1007900091819E838D838B819C8187309140D8F499
:1007A000809112018695809312018D819E818830FF
:1007B000914008F446C08D819E818631934008F0B7
:1007C00040C0809112018130E1F180911201869543
:1007D0008093120136C08B819C8187319340A0F0B9
:1007E0008D819E818830914060F18D819E8186311E
:1007F000934038F580911201803819F180911201EF
:10080000880F809312011DC08D819E818730914099
:1008100050F480911301813031F08091130186955D
:10082000809313010EC08D819E818731934048F0E3
:1008300080911301803829F080911301880F8093F3
:100840001301809113010E94C702809112010E943E
:100850002F0300008F81988528960FB6F894DEBF8D
:100860000FBECDBFDF91CF910895CF93DF9300D01E
:10087000CDB7DEB79A83898389819A810F900F90D3
:10088000DF91CF9108950F931F93CF93DF93CDB74F
:10089000DEB72D970FB6F894DEBF0FBECDBF81E255
:1008A00090E0FC01108282E290E02FEFFC012083B7
:1008B00084E290E02FEFFC01208385E290E0FC01D0
:1008C000108287E290E02FEFFC01208388E290E025
:1008D000FC0110828AE290E02FEFFC0120838BE282
:1008E00090E0FC0110820E94B60289E191E09B87B2
:1008F0008A8784E291E09D878C8782E090E09F83E5
:100900008E8381E090E0998788871092190128856D
:10091000398544E6429FC001439F900D1124CC01CC
:10092000A0E0B0E080931A0190931B01A0931C01FA
:10093000B0931D0180911A0190911B01A0911C019F
:10094000B0911D0180931E0190931F01A09320017F
:10095000B093210183E993E09093230180932201D6
:100960001092240188859985CC01A0E0B0E08093A5
:10097000250190932601A0932701B093280180912F
:10098000250190912601A0912701B0912801809323
:10099000290190932A01A0932B01B0932C0185E3A8
:1009A00094E090932E0180932D018A859B85FC0114
:1009B00081819281A381B4818A839B83AC83BD832F
:1009C00081E0898324C08981882F90E0880F991F56
:1009D0009E012F5F3F4F820F931F0996FC0180817C
:1009E0009181FC0121813281438154818A819B81E3
:1009F000AC81BD81BC01CD010E944002DC01CB0174
:100A00008A839B83AC83BD8389818F5F898389813E
:100A1000282F30E08E819F8128173907A0F28A8124
:100A20009B81AC81BD81BC01CD010E9462010E940D
:100A300090011982A6C08981882F90E0880F991FA4
:100A40009E012F5F3F4F820F931F0996FC0180810B
:100A50009181FC0125813681478150858981882FCC
:100A600090E0880F991FBE016F5F7F4F860F971F21
:100A70000996FC0180819181FC0181819281A38191
:100A8000B481281739074A075B0709F049C08981F3
:100A9000882F90E0880F991F9E012F5F3F4F820F94
:100AA000931F0996FC01008111818981882F90E0B4
:100AB000880F991F9E012F5F3F4F820F931F09964A
:100AC000FC0180819181FC01218532858981882FFB
:100AD00090E0880F991FAE014F5F5F4F840F951F05
:100AE0000996FC0180819181FC018081082E000C17
:100AF000990BF9010995F80180838981882F90E08D
:100B0000880F991F9E012F5F3F4F820F931F0996F9
:100B1000FC0180819181FC0115821682178210866A
:100B20008981882F90E0880F991F9E012F5F3F4F8A
:100B3000820F931F0996FC01608171818981882F42
:100B400090E0880F991F9E012F5F3F4F820F931FE8
:100B50000996FC0180819181FC01258136814781C4
:100B600050858A819B81AC81BD81820F931FA41F18
:100B7000B51FFB0185839683A783B08789818F5F2B
:100B800089838981282F30E08E819F81281739073A
:100B900008F451CF0000809114018823E1F31092F2
:100BA000140147CFA1E21A2EAA1BBB1BFD010DC0E9
:100BB000AA1FBB1FEE1FFF1FA217B307E407F5070D
:100BC00020F0A21BB30BE40BF50B661F771F881FE9
:100BD000991F1A9469F760957095809590959B017F
:0C0BE000AC01BD01CF010895F894FFCFD7
:100BEC000100000000000002000000008D02000067
:040BFC0000001008DD
:00000001FF
