:100000000C9446000C9465000C9465000C946500FB
:100010000C9465000C9465000C9465000C946500CC
:100020000C9465000C9465000C9465000C946500BC
:100030000C9465000C94DE010C9465000C94650032
:100040000C9465000C9465000C9465000C9465009C
:100050000C9465000C9465000C9465000C9465008C
:100060000C9465000C9465000C9465000C9465007C
:100070000C9465000C9465000C9465000C9465006C
:100080000C9465000C9465000C94650011241FBE4F
:10009000CFEFD0E4DEBFCDBF11E0A0E0B1E0E4EFF0
:1000A000F8E000E00BBF02C007900D92A431B10749
:1000B000D9F721E0A4E1B1E001C01D92A432B2075A
:1000C000E1F70E9403030C9478040C940000CF9392
:1000D000DF93CDB7DEB781E00E948E000000DF9194
:1000E000CF910895CF93DF93CDB7DEB784E690E04C
:1000F0000E94320188E30E948E0086E00E948E00FA
:100100008FE00E948E0081E00E948E008AE090E0E5
:100110000E9432010000DF91CF910895CF93DF93C9
:100120001F92CDB7DEB7898385E290E025E230E00B
:10013000F90120812F7BFC0120838BE290E0298153
:10014000FC01208385E290E025E230E0F901208186
:100150002068FC012083000085E290E025E230E089
:10016000F90120812F77FC01208382E090E00E943A
:10017000320100000F90DF91CF910895CF93DF936C
:100180001F92CDB7DEB7898385E290E025E230E0AB
:10019000F90120812064FC0120838BE290E0298119
:1001A000FC01208385E290E025E230E0F901208126
:1001B0002068FC012083000085E290E025E230E029
:1001C000F90120812F77FC01208381E090E00E94DB
:1001D000320100000F90DF91CF910895CF93DF930C
:1001E00000D000D0CDB7DEB78A837C836B830E94BA
:1001F00067008A81898311C0898191E0980F998372
:100200000E941B018B819C819C012F5F3F4F3C838F
:100210002B83FC0180810E94BE008B819C81FC01AC
:100220008081882349F700000F900F900F900F9066
:10023000DF91CF910895CF93DF931F92CDB7DEB7B3
:1002400089838981813128F4898181580E948E00B7
:1002500004C0898181550E948E0000000F90DF91BB
:10026000CF910895CF93DF9300D000D000D0CDB7C9
:10027000DEB79E838D831A82198213C01C821B8273
:1002800006C000008B819C8101969C838B838B81AF
:100290009C8187309340ACF389819A8101969A833F
:1002A000898329813A818D819E812817390734F30A
:1002B000000026960FB6F894DEBF0FBECDBFDF91CB
:1002C000CF910895CF93DF9300D000D0CDB7DEB7A4
:1002D00069837A838B839C8389819A81AB81BC817A
:1002E0008093000190930101A0930201B093030158
:1002F0008091000190910101A0910201B091030150
:100300008093150190931601A0931701B0931801E3
:1003100000000F900F900F900F90DF91CF910895F4
:10032000CF93DF93CDB7DEB781E890E02BE0FC01FF
:10033000208388E890E02DE730E0FC0131832083C2
:100340008FE690E022E0FC01208384E890E0FC014D
:10035000118210828091000190910101A09102010F
:10036000B09103018093150190931601A09317019A
:10037000B09318018FE590E02FE530E0F90120817E
:100380002068FC0120830000DF91CF910895CF9376
:10039000DF93CDB7DEB781E890E0FC01108200006A
:1003A000DF91CF910895CF93DF93CDB7DEB781E092
:1003B000809314010000DF91CF9108951F920F9256
:1003C00000905F000F92112400905B000F922F931A
:1003D0003F934F935F936F937F938F939F93AF93CD
:1003E000BF93EF93FF93CF93DF93CDB7DEB78091A9
:1003F000150190911601A0911701B0911801019774
:10040000A109B1098093150190931601A0931701DA
:10041000B09318018091150190911601A0911701D8
:10042000B0911801892B8A2B8B2B91F40E94D30158
:100430008091000190910101A0910201B09103010E
:100440008093150190931601A0931701B0931801A2
:100450000000DF91CF91FF91EF91BF91AF919F91FC
:100460008F917F916F915F914F913F912F910F905D
:1004700000925B000F9000925F000F901F90189504
:10048000CF93DF93CDB7DEB72C970FB6F894DEBFCE
:100490000FBECDBF6D837E838F83988729873A8770
:1004A0004B875C878D819E81AF81B88529853A8590
:1004B0004B855C85BC01CD010E945604DC01CB015B
:1004C00089839A83AB83BC8389819A81AB81BC8108
:1004D000892B8A2B8B2B29F489859A85AB85BC8542
:1004E00011C089859A85AB85BC858D839E83AF833A
:1004F000B88789819A81AB81BC8189879A87AB87CC
:10050000BC87D0CFBC01CD012C960FB6F894DEBFCE
:100510000FBECDBFDF91CF910895CF93DF9300D071
:100520001F92CDB7DEB789837B836A8389818A3046
:1005300031F48A819B81BC018DE00E948D0280ECA8
:1005400090E0FC018081882F90E080729927892BB0
:10055000B1F386EC90E02981FC01208380E090E0FB
:100560000F900F900F90DF91CF910895CF93DF936D
:1005700000D0CDB7DEB79A83898389819A81892B90
:1005800019F01A82198201C0000089819A81892B91
:1005900009F026C0809112018F3E59F48091130119
:1005A000813039F480E8809313018EEF809312013B
:1005B00016C080911301813069F480E880931301A3
:1005C00080911201882F90E0880F991F816080939D
:1005D000120105C0809113018695809313010000DC
:1005E00082E290E020911301FC01208385E290E0FB
:1005F00020911201FC01208389819A810F900F9034
:10060000DF91CF9108950F931F93CF93DF93CDB7D1
:10061000DEB72A970FB6F894DEBF0FBECDBF81E2DA
:1006200090E02FEFFC01208382E290E0FC01108239
:1006300084E290E02FEFFC01208385E290E0FC0152
:1006400010828AE290E02FEFFC0120838BE290E0A1
:10065000FC01108289E191E09A87898781E090E02E
:100660009F838E8384E68887109219018885882F5E
:1006700090E0A0E0B0E080931A0190931B01A0935A
:100680001C01B0931D0180911A0190911B01A09152
:100690001C01B0911D0180931E0190931F01A09336
:1006A0002001B093210186EB92E090932301809387
:1006B000220189859A85FC0181819281A381B4817F
:1006C0008A839B83AC83BD8381E0898324C0898135
:1006D000882F90E0880F991F9E012F5F3F4F820F58
:1006E000931F0896FC0180819181FC012181328158
:1006F000438154818A819B81AC81BD81BC01CD0144
:100700000E944002DC01CB018A839B83AC83BD83C2
:1007100089818F5F89838981282F30E08E819F8135
:1007200028173907A0F28A819B81AC81BD81BC0169
:10073000CD010E9462010E9490011982A6C08981A8
:10074000882F90E0880F991F9E012F5F3F4F820FE7
:10075000931F0896FC0180819181FC0125813681DF
:10076000478150858981882F90E0880F991FBE01AD
:100770006F5F7F4F860F971F0896FC0180819181E4
:10078000FC0181819281A381B481281739074A072E
:100790005B0709F049C08981882F90E0880F991F75
:1007A0009E012F5F3F4F820F931F0896FC0100812F
:1007B00011818981882F90E0880F991F9E012F5FFA
:1007C0003F4F820F931F0896FC0180819181FC01AD
:1007D000218532858981882F90E0880F991FAE018D
:1007E0004F5F5F4F840F951F0896FC0180819181B8
:1007F000FC018081082E000C990BF9010995F80184
:1008000080838981882F90E0880F991F9E012F5F38
:100810003F4F820F931F0896FC0180819181FC015C
:1008200015821682178210868981882F90E0880FA2
:10083000991F9E012F5F3F4F820F931F0896FC0167
:10084000608171818981882F90E0880F991F9E01B6
:100850002F5F3F4F820F931F0896FC01808191818B
:10086000FC0125813681478150858A819B81AC813D
:10087000BD81820F931FA41FB51FFB018583968343
:10088000A783B08789818F5F89838981282F30E092
:100890008E819F812817390708F451CF000080917D
:1008A00014018823E1F31092140147CFA1E21A2E1C
:1008B000AA1BBB1BFD010DC0AA1FBB1FEE1FFF1F04
:1008C000A217B307E407F50720F0A21BB30BE40B54
:1008D000F50B661F771F881F991F1A9469F760959B
:1008E0007095809590959B01AC01BD01CF01089555
:0408F000F894FFCFAA
:1008F4000100000000000002000000008D02000062
:040904000000FE8071
:00000001FF
